{
  "_format": "hh-sol-artifact-1",
  "contractName": "GovernanceToken",
  "sourceName": "contracts/GovernanceToken.sol",
  "abi": [
    {
      "inputs": [
        {
          "internalType": "uint256",
          "name": "maximumSupply",
          "type": "uint256"
        }
      ],
      "stateMutability": "nonpayable",
      "type": "constructor"
    },
    {
      "anonymous": false,
      "inputs": [
        {
          "indexed": true,
          "internalType": "address",
          "name": "owner",
          "type": "address"
        },
        {
          "indexed": true,
          "internalType": "address",
          "name": "spender",
          "type": "address"
        },
        {
          "indexed": false,
          "internalType": "uint256",
          "name": "value",
          "type": "uint256"
        }
      ],
      "name": "Approval",
      "type": "event"
    },
    {
      "anonymous": false,
      "inputs": [
        {
          "indexed": true,
          "internalType": "address",
          "name": "delegator",
          "type": "address"
        },
        {
          "indexed": true,
          "internalType": "address",
          "name": "fromDelegate",
          "type": "address"
        },
        {
          "indexed": true,
          "internalType": "address",
          "name": "toDelegate",
          "type": "address"
        }
      ],
      "name": "DelegateChanged",
      "type": "event"
    },
    {
      "anonymous": false,
      "inputs": [
        {
          "indexed": true,
          "internalType": "address",
          "name": "delegate",
          "type": "address"
        },
        {
          "indexed": false,
          "internalType": "uint256",
          "name": "previousBalance",
          "type": "uint256"
        },
        {
          "indexed": false,
          "internalType": "uint256",
          "name": "newBalance",
          "type": "uint256"
        }
      ],
      "name": "DelegateVotesChanged",
      "type": "event"
    },
    {
      "anonymous": false,
      "inputs": [
        {
          "indexed": true,
          "internalType": "address",
          "name": "from",
          "type": "address"
        },
        {
          "indexed": true,
          "internalType": "address",
          "name": "to",
          "type": "address"
        },
        {
          "indexed": false,
          "internalType": "uint256",
          "name": "value",
          "type": "uint256"
        }
      ],
      "name": "Transfer",
      "type": "event"
    },
    {
      "inputs": [],
      "name": "DOMAIN_SEPARATOR",
      "outputs": [
        {
          "internalType": "bytes32",
          "name": "",
          "type": "bytes32"
        }
      ],
      "stateMutability": "view",
      "type": "function"
    },
    {
      "inputs": [],
      "name": "_maximumSupply",
      "outputs": [
        {
          "internalType": "uint256",
          "name": "",
          "type": "uint256"
        }
      ],
      "stateMutability": "view",
      "type": "function"
    },
    {
      "inputs": [
        {
          "internalType": "address",
          "name": "owner",
          "type": "address"
        },
        {
          "internalType": "address",
          "name": "spender",
          "type": "address"
        }
      ],
      "name": "allowance",
      "outputs": [
        {
          "internalType": "uint256",
          "name": "",
          "type": "uint256"
        }
      ],
      "stateMutability": "view",
      "type": "function"
    },
    {
      "inputs": [
        {
          "internalType": "address",
          "name": "spender",
          "type": "address"
        },
        {
          "internalType": "uint256",
          "name": "amount",
          "type": "uint256"
        }
      ],
      "name": "approve",
      "outputs": [
        {
          "internalType": "bool",
          "name": "",
          "type": "bool"
        }
      ],
      "stateMutability": "nonpayable",
      "type": "function"
    },
    {
      "inputs": [
        {
          "internalType": "address",
          "name": "account",
          "type": "address"
        }
      ],
      "name": "balanceOf",
      "outputs": [
        {
          "internalType": "uint256",
          "name": "",
          "type": "uint256"
        }
      ],
      "stateMutability": "view",
      "type": "function"
    },
    {
      "inputs": [
        {
          "internalType": "address",
          "name": "account",
          "type": "address"
        },
        {
          "internalType": "uint32",
          "name": "pos",
          "type": "uint32"
        }
      ],
      "name": "checkpoints",
      "outputs": [
        {
          "components": [
            {
              "internalType": "uint32",
              "name": "fromBlock",
              "type": "uint32"
            },
            {
              "internalType": "uint224",
              "name": "votes",
              "type": "uint224"
            }
          ],
          "internalType": "struct ERC20Votes.Checkpoint",
          "name": "",
          "type": "tuple"
        }
      ],
      "stateMutability": "view",
      "type": "function"
    },
    {
      "inputs": [],
      "name": "decimals",
      "outputs": [
        {
          "internalType": "uint8",
          "name": "",
          "type": "uint8"
        }
      ],
      "stateMutability": "view",
      "type": "function"
    },
    {
      "inputs": [
        {
          "internalType": "address",
          "name": "spender",
          "type": "address"
        },
        {
          "internalType": "uint256",
          "name": "subtractedValue",
          "type": "uint256"
        }
      ],
      "name": "decreaseAllowance",
      "outputs": [
        {
          "internalType": "bool",
          "name": "",
          "type": "bool"
        }
      ],
      "stateMutability": "nonpayable",
      "type": "function"
    },
    {
      "inputs": [
        {
          "internalType": "address",
          "name": "delegatee",
          "type": "address"
        }
      ],
      "name": "delegate",
      "outputs": [],
      "stateMutability": "nonpayable",
      "type": "function"
    },
    {
      "inputs": [
        {
          "internalType": "address",
          "name": "delegatee",
          "type": "address"
        },
        {
          "internalType": "uint256",
          "name": "nonce",
          "type": "uint256"
        },
        {
          "internalType": "uint256",
          "name": "expiry",
          "type": "uint256"
        },
        {
          "internalType": "uint8",
          "name": "v",
          "type": "uint8"
        },
        {
          "internalType": "bytes32",
          "name": "r",
          "type": "bytes32"
        },
        {
          "internalType": "bytes32",
          "name": "s",
          "type": "bytes32"
        }
      ],
      "name": "delegateBySig",
      "outputs": [],
      "stateMutability": "nonpayable",
      "type": "function"
    },
    {
      "inputs": [
        {
          "internalType": "address",
          "name": "account",
          "type": "address"
        }
      ],
      "name": "delegates",
      "outputs": [
        {
          "internalType": "address",
          "name": "",
          "type": "address"
        }
      ],
      "stateMutability": "view",
      "type": "function"
    },
    {
      "inputs": [
        {
          "internalType": "uint256",
          "name": "blockNumber",
          "type": "uint256"
        }
      ],
      "name": "getPastTotalSupply",
      "outputs": [
        {
          "internalType": "uint256",
          "name": "",
          "type": "uint256"
        }
      ],
      "stateMutability": "view",
      "type": "function"
    },
    {
      "inputs": [
        {
          "internalType": "address",
          "name": "account",
          "type": "address"
        },
        {
          "internalType": "uint256",
          "name": "blockNumber",
          "type": "uint256"
        }
      ],
      "name": "getPastVotes",
      "outputs": [
        {
          "internalType": "uint256",
          "name": "",
          "type": "uint256"
        }
      ],
      "stateMutability": "view",
      "type": "function"
    },
    {
      "inputs": [
        {
          "internalType": "address",
          "name": "account",
          "type": "address"
        }
      ],
      "name": "getVotes",
      "outputs": [
        {
          "internalType": "uint256",
          "name": "",
          "type": "uint256"
        }
      ],
      "stateMutability": "view",
      "type": "function"
    },
    {
      "inputs": [
        {
          "internalType": "address",
          "name": "spender",
          "type": "address"
        },
        {
          "internalType": "uint256",
          "name": "addedValue",
          "type": "uint256"
        }
      ],
      "name": "increaseAllowance",
      "outputs": [
        {
          "internalType": "bool",
          "name": "",
          "type": "bool"
        }
      ],
      "stateMutability": "nonpayable",
      "type": "function"
    },
    {
      "inputs": [],
      "name": "name",
      "outputs": [
        {
          "internalType": "string",
          "name": "",
          "type": "string"
        }
      ],
      "stateMutability": "view",
      "type": "function"
    },
    {
      "inputs": [
        {
          "internalType": "address",
          "name": "owner",
          "type": "address"
        }
      ],
      "name": "nonces",
      "outputs": [
        {
          "internalType": "uint256",
          "name": "",
          "type": "uint256"
        }
      ],
      "stateMutability": "view",
      "type": "function"
    },
    {
      "inputs": [
        {
          "internalType": "address",
          "name": "account",
          "type": "address"
        }
      ],
      "name": "numCheckpoints",
      "outputs": [
        {
          "internalType": "uint32",
          "name": "",
          "type": "uint32"
        }
      ],
      "stateMutability": "view",
      "type": "function"
    },
    {
      "inputs": [
        {
          "internalType": "address",
          "name": "owner",
          "type": "address"
        },
        {
          "internalType": "address",
          "name": "spender",
          "type": "address"
        },
        {
          "internalType": "uint256",
          "name": "value",
          "type": "uint256"
        },
        {
          "internalType": "uint256",
          "name": "deadline",
          "type": "uint256"
        },
        {
          "internalType": "uint8",
          "name": "v",
          "type": "uint8"
        },
        {
          "internalType": "bytes32",
          "name": "r",
          "type": "bytes32"
        },
        {
          "internalType": "bytes32",
          "name": "s",
          "type": "bytes32"
        }
      ],
      "name": "permit",
      "outputs": [],
      "stateMutability": "nonpayable",
      "type": "function"
    },
    {
      "inputs": [],
      "name": "symbol",
      "outputs": [
        {
          "internalType": "string",
          "name": "",
          "type": "string"
        }
      ],
      "stateMutability": "view",
      "type": "function"
    },
    {
      "inputs": [],
      "name": "totalSupply",
      "outputs": [
        {
          "internalType": "uint256",
          "name": "",
          "type": "uint256"
        }
      ],
      "stateMutability": "view",
      "type": "function"
    },
    {
      "inputs": [
        {
          "internalType": "address",
          "name": "to",
          "type": "address"
        },
        {
          "internalType": "uint256",
          "name": "amount",
          "type": "uint256"
        }
      ],
      "name": "transfer",
      "outputs": [
        {
          "internalType": "bool",
          "name": "",
          "type": "bool"
        }
      ],
      "stateMutability": "nonpayable",
      "type": "function"
    },
    {
      "inputs": [
        {
          "internalType": "address",
          "name": "from",
          "type": "address"
        },
        {
          "internalType": "address",
          "name": "to",
          "type": "address"
        },
        {
          "internalType": "uint256",
          "name": "amount",
          "type": "uint256"
        }
      ],
      "name": "transferFrom",
      "outputs": [
        {
          "internalType": "bool",
          "name": "",
          "type": "bool"
        }
      ],
      "stateMutability": "nonpayable",
      "type": "function"
    }
  ],
  "bytecode": "0x6101606040527f6e71edae12b1b97f4d1f60370fef10105fa2faae0126114a169c64845d6126c9610140523480156200003757600080fd5b506040516200267f3803806200267f8339810160408190526200005a916200087d565b6040518060400160405280600f81526020016e23b7bb32b93730b731b2aa37b5b2b760891b81525080604051806040016040528060018152602001603160f81b8152506040518060400160405280600f81526020016e23b7bb32b93730b731b2aa37b5b2b760891b8152506040518060400160405280600281526020016111d560f21b8152508160039080519060200190620000f8929190620007e1565b5080516200010e906004906020840190620007e1565b5050825160208085019190912083518483012060e08290526101008190524660a0818152604080517f8b73c3c69bb8fe3d512ecc4cf759cc79239f7b179b0ffacaa9a75d522b39400f81880181905281830187905260608201869052608082019490945230818401528151808203909301835260c0019052805194019390932091935091906080523060601b60c05261012052505050600983905550620001b890503382620001bf565b506200091e565b620001d68282620001da60201b62000a951760201c565b5050565b620001f182826200029160201b62000b251760201c565b6001600160e01b0362000205620003808216565b1115620002725760405162461bcd60e51b815260206004820152603060248201527f4552433230566f7465733a20746f74616c20737570706c79207269736b73206f60448201526f766572666c6f77696e6720766f74657360801b60648201526084015b60405180910390fd5b6200028b600862000c106200038660201b17836200039b565b50505050565b6001600160a01b038216620002e95760405162461bcd60e51b815260206004820152601f60248201527f45524332303a206d696e7420746f20746865207a65726f206164647265737300604482015260640162000269565b8060026000828254620002fd919062000896565b90915550506001600160a01b038216600090815260208190526040812080548392906200032c90849062000896565b90915550506040518181526001600160a01b038316906000907fddf252ad1be2c89b69c2b068fc378daa952ba7f163c4a11628f55a4df523b3ef9060200160405180910390a3620001d66000838362000576565b60025490565b600062000394828462000896565b9392505050565b825460009081908015620003f95785620003b7600183620008b1565b81548110620003d657634e487b7160e01b600052603260045260246000fd5b60009182526020909120015464010000000090046001600160e01b0316620003fc565b60005b6001600160e01b031692506200041383858760201c565b9150600081118015620004635750438662000430600184620008b1565b815481106200044f57634e487b7160e01b600052603260045260246000fd5b60009182526020909120015463ffffffff16145b15620004e3576200047f826200058e60201b62000c1c1760201c565b866200048d600184620008b1565b81548110620004ac57634e487b7160e01b600052603260045260246000fd5b9060005260206000200160000160046101000a8154816001600160e01b0302191690836001600160e01b0316021790555062000568565b8560405180604001604052806200050543620005fd60201b62000c891760201c565b63ffffffff16815260200162000526856200058e60201b62000c1c1760201c565b6001600160e01b0390811690915282546001810184556000938452602093849020835194909301519091166401000000000263ffffffff909316929092179101555b50935093915050565b505050565b620005718383836200066460201b62000cee1760201c565b60006001600160e01b03821115620005f95760405162461bcd60e51b815260206004820152602760248201527f53616665436173743a2076616c756520646f65736e27742066697420696e20326044820152663234206269747360c81b606482015260840162000269565b5090565b600063ffffffff821115620005f95760405162461bcd60e51b815260206004820152602660248201527f53616665436173743a2076616c756520646f65736e27742066697420696e203360448201526532206269747360d01b606482015260840162000269565b6200067c8383836200057160201b62000d201760201c565b6001600160a01b038381166000908152600660205260408082205485841683529120546200057192918216911683818314801590620006bb5750600081115b1562000571576001600160a01b0383161562000748576001600160a01b038316600090815260076020908152604082208291620007059190620007d3901b62000d2517856200039b565b91509150846001600160a01b03166000805160206200265f83398151915283836040516200073d929190918252602082015260400190565b60405180910390a250505b6001600160a01b0382161562000571576001600160a01b0382166000908152600760209081526040822082916200078c919062000386901b62000c1017856200039b565b91509150836001600160a01b03166000805160206200265f8339815191528383604051620007c4929190918252602082015260400190565b60405180910390a25050505050565b6000620003948284620008b1565b828054620007ef90620008cb565b90600052602060002090601f0160209004810192826200081357600085556200085e565b82601f106200082e57805160ff19168380011785556200085e565b828001600101855582156200085e579182015b828111156200085e57825182559160200191906001019062000841565b50620005f99291505b80821115620005f9576000815560010162000867565b6000602082840312156200088f578081fd5b5051919050565b60008219821115620008ac57620008ac62000908565b500190565b600082821015620008c657620008c662000908565b500390565b600181811c90821680620008e057607f821691505b602082108114156200090257634e487b7160e01b600052602260045260246000fd5b50919050565b634e487b7160e01b600052601160045260246000fd5b60805160a05160c05160601c60e051610100516101205161014051611ce36200097c60003960006108f30152600061113f0152600061118e01526000611169015260006110c2015260006110ec015260006111160152611ce36000f3fe608060405234801561001057600080fd5b506004361061017d5760003560e01c806370a08231116100e3578063a457c2d71161008c578063d505accf11610066578063d505accf14610352578063dd62ed3e14610365578063f1127ed81461039e57600080fd5b8063a457c2d714610319578063a9059cbb1461032c578063c3cda5201461033f57600080fd5b806395d89b41116100bd57806395d89b41146102f55780639ab24eb0146102fd578063a208d7631461031057600080fd5b806370a08231146102a65780637ecebe00146102cf5780638e539e8c146102e257600080fd5b80633644e51511610145578063587cde1e1161011f578063587cde1e146102255780635c19a95c146102695780636fcfff451461027e57600080fd5b80633644e515146101f757806339509351146101ff5780633a46b1a81461021257600080fd5b806306fdde0314610182578063095ea7b3146101a057806318160ddd146101c357806323b872dd146101d5578063313ce567146101e8575b600080fd5b61018a6103db565b6040516101979190611bc0565b60405180910390f35b6101b36101ae366004611aea565b61046d565b6040519015158152602001610197565b6002545b604051908152602001610197565b6101b36101e3366004611a46565b610485565b60405160128152602001610197565b6101c76104a9565b6101b361020d366004611aea565b6104b8565b6101c7610220366004611aea565b6104f7565b6102516102333660046119fa565b6001600160a01b039081166000908152600660205260409020541690565b6040516001600160a01b039091168152602001610197565b61027c6102773660046119fa565b610576565b005b61029161028c3660046119fa565b610583565b60405163ffffffff9091168152602001610197565b6101c76102b43660046119fa565b6001600160a01b031660009081526020819052604090205490565b6101c76102dd3660046119fa565b6105ab565b6101c76102f0366004611ba8565b6105c9565b61018a610625565b6101c761030b3660046119fa565b610634565b6101c760095481565b6101b3610327366004611aea565b6106c9565b6101b361033a366004611aea565b61075b565b61027c61034d366004611b13565b610769565b61027c610360366004611a81565b61089f565b6101c7610373366004611a14565b6001600160a01b03918216600090815260016020908152604080832093909416825291909152205490565b6103b16103ac366004611b6a565b610a03565b60408051825163ffffffff1681526020928301516001600160e01b03169281019290925201610197565b6060600380546103ea90611c62565b80601f016020809104026020016040519081016040528092919081815260200182805461041690611c62565b80156104635780601f1061043857610100808354040283529160200191610463565b820191906000526020600020905b81548152906001019060200180831161044657829003601f168201915b5050505050905090565b60003361047b818585610d31565b5060019392505050565b600033610493858285610e55565b61049e858585610ee1565b506001949350505050565b60006104b36110b5565b905090565b3360008181526001602090815260408083206001600160a01b038716845290915281205490919061047b90829086906104f2908790611c13565b610d31565b600043821061054d5760405162461bcd60e51b815260206004820152601f60248201527f4552433230566f7465733a20626c6f636b206e6f7420796574206d696e65640060448201526064015b60405180910390fd5b6001600160a01b038316600090815260076020526040902061056f90836111dc565b9392505050565b61058033826112b5565b50565b6001600160a01b0381166000908152600760205260408120546105a590610c89565b92915050565b6001600160a01b0381166000908152600560205260408120546105a5565b600043821061061a5760405162461bcd60e51b815260206004820152601f60248201527f4552433230566f7465733a20626c6f636b206e6f7420796574206d696e6564006044820152606401610544565b6105a56008836111dc565b6060600480546103ea90611c62565b6001600160a01b03811660009081526007602052604081205480156106b6576001600160a01b0383166000908152600760205260409020610676600183611c4b565b8154811061069457634e487b7160e01b600052603260045260246000fd5b60009182526020909120015464010000000090046001600160e01b03166106b9565b60005b6001600160e01b03169392505050565b3360008181526001602090815260408083206001600160a01b03871684529091528120549091908381101561074e5760405162461bcd60e51b815260206004820152602560248201527f45524332303a2064656372656173656420616c6c6f77616e63652062656c6f77604482015264207a65726f60d81b6064820152608401610544565b61049e8286868403610d31565b60003361047b818585610ee1565b834211156107b95760405162461bcd60e51b815260206004820152601d60248201527f4552433230566f7465733a207369676e617475726520657870697265640000006044820152606401610544565b604080517fe48329057bfd03d55e49b547132e39cffd9c1820ad7b9d4c5307691425d15adf60208201526001600160a01b0388169181019190915260608101869052608081018590526000906108339061082b9060a0016040516020818303038152906040528051906020012061133b565b858585611389565b905061083e816113b1565b861461088c5760405162461bcd60e51b815260206004820152601960248201527f4552433230566f7465733a20696e76616c6964206e6f6e6365000000000000006044820152606401610544565b61089681886112b5565b50505050505050565b834211156108ef5760405162461bcd60e51b815260206004820152601d60248201527f45524332305065726d69743a206578706972656420646561646c696e650000006044820152606401610544565b60007f000000000000000000000000000000000000000000000000000000000000000088888861091e8c6113b1565b6040805160208101969096526001600160a01b0394851690860152929091166060840152608083015260a082015260c0810186905260e00160405160208183030381529060405280519060200120905060006109798261133b565b9050600061098982878787611389565b9050896001600160a01b0316816001600160a01b0316146109ec5760405162461bcd60e51b815260206004820152601e60248201527f45524332305065726d69743a20696e76616c6964207369676e617475726500006044820152606401610544565b6109f78a8a8a610d31565b50505050505050505050565b60408051808201909152600080825260208201526001600160a01b0383166000908152600760205260409020805463ffffffff8416908110610a5557634e487b7160e01b600052603260045260246000fd5b60009182526020918290206040805180820190915291015463ffffffff8116825264010000000090046001600160e01b0316918101919091529392505050565b610a9f8282610b25565b6002546001600160e01b031015610b115760405162461bcd60e51b815260206004820152603060248201527f4552433230566f7465733a20746f74616c20737570706c79207269736b73206f60448201526f766572666c6f77696e6720766f74657360801b6064820152608401610544565b610b1f6008610c10836113d9565b50505050565b6001600160a01b038216610b7b5760405162461bcd60e51b815260206004820152601f60248201527f45524332303a206d696e7420746f20746865207a65726f2061646472657373006044820152606401610544565b8060026000828254610b8d9190611c13565b90915550506001600160a01b03821660009081526020819052604081208054839290610bba908490611c13565b90915550506040518181526001600160a01b038316906000907fddf252ad1be2c89b69c2b068fc378daa952ba7f163c4a11628f55a4df523b3ef9060200160405180910390a3610c0c6000838361157c565b5050565b600061056f8284611c13565b60006001600160e01b03821115610c855760405162461bcd60e51b815260206004820152602760248201527f53616665436173743a2076616c756520646f65736e27742066697420696e20326044820152663234206269747360c81b6064820152608401610544565b5090565b600063ffffffff821115610c855760405162461bcd60e51b815260206004820152602660248201527f53616665436173743a2076616c756520646f65736e27742066697420696e203360448201526532206269747360d01b6064820152608401610544565b6001600160a01b03838116600090815260066020526040808220548584168352912054610d2092918216911683611587565b505050565b600061056f8284611c4b565b6001600160a01b038316610d935760405162461bcd60e51b8152602060048201526024808201527f45524332303a20617070726f76652066726f6d20746865207a65726f206164646044820152637265737360e01b6064820152608401610544565b6001600160a01b038216610df45760405162461bcd60e51b815260206004820152602260248201527f45524332303a20617070726f766520746f20746865207a65726f206164647265604482015261737360f01b6064820152608401610544565b6001600160a01b0383811660008181526001602090815260408083209487168084529482529182902085905590518481527f8c5be1e5ebec7d5bd14f71427d1e84f3dd0314c0f7b2291e5b200ac8c7c3b925910160405180910390a3505050565b6001600160a01b038381166000908152600160209081526040808320938616835292905220546000198114610b1f5781811015610ed45760405162461bcd60e51b815260206004820152601d60248201527f45524332303a20696e73756666696369656e7420616c6c6f77616e63650000006044820152606401610544565b610b1f8484848403610d31565b6001600160a01b038316610f455760405162461bcd60e51b815260206004820152602560248201527f45524332303a207472616e736665722066726f6d20746865207a65726f206164604482015264647265737360d81b6064820152608401610544565b6001600160a01b038216610fa75760405162461bcd60e51b815260206004820152602360248201527f45524332303a207472616e7366657220746f20746865207a65726f206164647260448201526265737360e81b6064820152608401610544565b6001600160a01b0383166000908152602081905260409020548181101561101f5760405162461bcd60e51b815260206004820152602660248201527f45524332303a207472616e7366657220616d6f756e7420657863656564732062604482015265616c616e636560d01b6064820152608401610544565b6001600160a01b03808516600090815260208190526040808220858503905591851681529081208054849290611056908490611c13565b92505081905550826001600160a01b0316846001600160a01b03167fddf252ad1be2c89b69c2b068fc378daa952ba7f163c4a11628f55a4df523b3ef846040516110a291815260200190565b60405180910390a3610b1f84848461157c565b6000306001600160a01b037f00000000000000000000000000000000000000000000000000000000000000001614801561110e57507f000000000000000000000000000000000000000000000000000000000000000046145b1561113857507f000000000000000000000000000000000000000000000000000000000000000090565b50604080517f00000000000000000000000000000000000000000000000000000000000000006020808301919091527f0000000000000000000000000000000000000000000000000000000000000000828401527f000000000000000000000000000000000000000000000000000000000000000060608301524660808301523060a0808401919091528351808403909101815260c0909201909252805191012090565b8154600090815b8181101561124e5760006111f782846116c4565b90508486828154811061121a57634e487b7160e01b600052603260045260246000fd5b60009182526020909120015463ffffffff16111561123a57809250611248565b611245816001611c13565b91505b506111e3565b81156112a05784611260600184611c4b565b8154811061127e57634e487b7160e01b600052603260045260246000fd5b60009182526020909120015464010000000090046001600160e01b03166112a3565b60005b6001600160e01b031695945050505050565b6001600160a01b0382811660008181526006602081815260408084208054858452828620549490935287871673ffffffffffffffffffffffffffffffffffffffff198416811790915590519190951694919391928592917f3134e8a2e6d97e929a7e54011ea5485d7d196dd5f0ba4d4ef95803e8e3fc257f9190a4610b1f828483611587565b60006105a56113486110b5565b8360405161190160f01b6020820152602281018390526042810182905260009060620160405160208183030381529060405280519060200120905092915050565b600080600061139a878787876116df565b915091506113a7816117cc565b5095945050505050565b6001600160a01b03811660009081526005602052604090208054600181018255905b50919050565b82546000908190801561143257856113f2600183611c4b565b8154811061141057634e487b7160e01b600052603260045260246000fd5b60009182526020909120015464010000000090046001600160e01b0316611435565b60005b6001600160e01b0316925061144e83858763ffffffff16565b915060008111801561149a57504386611468600184611c4b565b8154811061148657634e487b7160e01b600052603260045260246000fd5b60009182526020909120015463ffffffff16145b15611508576114a882610c1c565b866114b4600184611c4b565b815481106114d257634e487b7160e01b600052603260045260246000fd5b9060005260206000200160000160046101000a8154816001600160e01b0302191690836001600160e01b03160217905550611573565b85604051806040016040528061151d43610c89565b63ffffffff16815260200161153185610c1c565b6001600160e01b0390811690915282546001810184556000938452602093849020835194909301519091166401000000000263ffffffff909316929092179101555b50935093915050565b610d20838383610cee565b816001600160a01b0316836001600160a01b0316141580156115a95750600081115b15610d20576001600160a01b03831615611637576001600160a01b038316600090815260076020526040812081906115e490610d25856113d9565b91509150846001600160a01b03167fdec2bacdd2f05b59de34da9b523dff8be42e5e38e818c82fdb0bae774387a724838360405161162c929190918252602082015260400190565b60405180910390a250505b6001600160a01b03821615610d20576001600160a01b0382166000908152600760205260408120819061166d90610c10856113d9565b91509150836001600160a01b03167fdec2bacdd2f05b59de34da9b523dff8be42e5e38e818c82fdb0bae774387a72483836040516116b5929190918252602082015260400190565b60405180910390a25050505050565b60006116d36002848418611c2b565b61056f90848416611c13565b6000807f7fffffffffffffffffffffffffffffff5d576e7357a4501ddfe92f46681b20a083111561171657506000905060036117c3565b8460ff16601b1415801561172e57508460ff16601c14155b1561173f57506000905060046117c3565b6040805160008082526020820180845289905260ff881692820192909252606081018690526080810185905260019060a0016020604051602081039080840390855afa158015611793573d6000803e3d6000fd5b5050604051601f1901519150506001600160a01b0381166117bc576000600192509250506117c3565b9150600090505b94509492505050565b60008160048111156117ee57634e487b7160e01b600052602160045260246000fd5b14156117f75750565b600181600481111561181957634e487b7160e01b600052602160045260246000fd5b14156118675760405162461bcd60e51b815260206004820152601860248201527f45434453413a20696e76616c6964207369676e617475726500000000000000006044820152606401610544565b600281600481111561188957634e487b7160e01b600052602160045260246000fd5b14156118d75760405162461bcd60e51b815260206004820152601f60248201527f45434453413a20696e76616c6964207369676e6174757265206c656e677468006044820152606401610544565b60038160048111156118f957634e487b7160e01b600052602160045260246000fd5b14156119525760405162461bcd60e51b815260206004820152602260248201527f45434453413a20696e76616c6964207369676e6174757265202773272076616c604482015261756560f01b6064820152608401610544565b600481600481111561197457634e487b7160e01b600052602160045260246000fd5b14156105805760405162461bcd60e51b815260206004820152602260248201527f45434453413a20696e76616c6964207369676e6174757265202776272076616c604482015261756560f01b6064820152608401610544565b80356001600160a01b03811681146119e457600080fd5b919050565b803560ff811681146119e457600080fd5b600060208284031215611a0b578081fd5b61056f826119cd565b60008060408385031215611a26578081fd5b611a2f836119cd565b9150611a3d602084016119cd565b90509250929050565b600080600060608486031215611a5a578081fd5b611a63846119cd565b9250611a71602085016119cd565b9150604084013590509250925092565b600080600080600080600060e0888a031215611a9b578283fd5b611aa4886119cd565b9650611ab2602089016119cd565b95506040880135945060608801359350611ace608089016119e9565b925060a0880135915060c0880135905092959891949750929550565b60008060408385031215611afc578182fd5b611b05836119cd565b946020939093013593505050565b60008060008060008060c08789031215611b2b578182fd5b611b34876119cd565b95506020870135945060408701359350611b50606088016119e9565b92506080870135915060a087013590509295509295509295565b60008060408385031215611b7c578182fd5b611b85836119cd565b9150602083013563ffffffff81168114611b9d578182fd5b809150509250929050565b600060208284031215611bb9578081fd5b5035919050565b6000602080835283518082850152825b81811015611bec57858101830151858201604001528201611bd0565b81811115611bfd5783604083870101525b50601f01601f1916929092016040019392505050565b60008219821115611c2657611c26611c97565b500190565b600082611c4657634e487b7160e01b81526012600452602481fd5b500490565b600082821015611c5d57611c5d611c97565b500390565b600181811c90821680611c7657607f821691505b602082108114156113d357634e487b7160e01b600052602260045260246000fd5b634e487b7160e01b600052601160045260246000fdfea264697066735822122039744cb6d29fe366aa5cc8b6c715036fe1449d60b08422495829827dec8f366364736f6c63430008040033dec2bacdd2f05b59de34da9b523dff8be42e5e38e818c82fdb0bae774387a724",
  "linkReferences": {},
  "deployedLinkReferences": {}
}