{
  "contracts/ERC4824.sol": {
    "ERC4824": {
      "abi": [
        {
          "anonymous": false,
          "inputs": [
            {
              "indexed": true,
              "internalType": "address",
              "name": "sender",
              "type": "address"
            },
            {
              "indexed": true,
              "internalType": "address",
              "name": "dao",
              "type": "address"
            },
            {
              "indexed": true,
              "internalType": "string",
              "name": "activityId",
              "type": "string"
            },
            {
              "indexed": false,
              "internalType": "string",
              "name": "activityLogURI",
              "type": "string"
            }
          ],
          "name": "ActivityLogUpdate",
          "type": "event"
        },
        {
          "anonymous": false,
          "inputs": [
            {
              "indexed": true,
              "internalType": "address",
              "name": "sender",
              "type": "address"
            },
            {
              "indexed": true,
              "internalType": "address",
              "name": "dao",
              "type": "address"
            },
            {
              "indexed": false,
              "internalType": "string",
              "name": "name",
              "type": "string"
            },
            {
              "indexed": false,
              "internalType": "string",
              "name": "description",
              "type": "string"
            },
            {
              "indexed": false,
              "internalType": "string",
              "name": "governanceURI",
              "type": "string"
            }
          ],
          "name": "DAOUpdate",
          "type": "event"
        },
        {
          "anonymous": false,
          "inputs": [
            {
              "indexed": true,
              "internalType": "address",
              "name": "sender",
              "type": "address"
            },
            {
              "indexed": true,
              "internalType": "address",
              "name": "dao",
              "type": "address"
            },
            {
              "indexed": true,
              "internalType": "address",
              "name": "member",
              "type": "address"
            },
            {
              "indexed": false,
              "internalType": "string",
              "name": "memberURI",
              "type": "string"
            }
          ],
          "name": "MemberUpdate",
          "type": "event"
        },
        {
          "anonymous": false,
          "inputs": [
            {
              "indexed": true,
              "internalType": "address",
              "name": "sender",
              "type": "address"
            },
            {
              "indexed": true,
              "internalType": "address",
              "name": "dao",
              "type": "address"
            },
            {
              "indexed": true,
              "internalType": "string",
              "name": "proposalId",
              "type": "string"
            },
            {
              "indexed": false,
              "internalType": "string",
              "name": "proposalURI",
              "type": "string"
            }
          ],
          "name": "ProposalUpdate",
          "type": "event"
        },
        {
          "inputs": [
            {
              "internalType": "address",
              "name": "dao",
              "type": "address"
            },
            {
              "internalType": "string",
              "name": "activityId",
              "type": "string"
            },
            {
              "internalType": "string",
              "name": "activityLogURI",
              "type": "string"
            }
          ],
          "name": "activityLogUpdate",
          "outputs": [],
          "stateMutability": "nonpayable",
          "type": "function"
        },
        {
          "inputs": [
            {
              "internalType": "address",
              "name": "dao",
              "type": "address"
            },
            {
              "internalType": "string",
              "name": "name",
              "type": "string"
            },
            {
              "internalType": "string",
              "name": "description",
              "type": "string"
            },
            {
              "internalType": "string",
              "name": "governanceURI",
              "type": "string"
            }
          ],
          "name": "daoUpdate",
          "outputs": [],
          "stateMutability": "nonpayable",
          "type": "function"
        },
        {
          "inputs": [
            {
              "internalType": "address",
              "name": "dao",
              "type": "address"
            },
            {
              "internalType": "address",
              "name": "member",
              "type": "address"
            },
            {
              "internalType": "string",
              "name": "memberURI",
              "type": "string"
            }
          ],
          "name": "memberUpdate",
          "outputs": [],
          "stateMutability": "nonpayable",
          "type": "function"
        },
        {
          "inputs": [
            {
              "internalType": "address",
              "name": "dao",
              "type": "address"
            },
            {
              "internalType": "string",
              "name": "proposalId",
              "type": "string"
            },
            {
              "internalType": "string",
              "name": "proposalURI",
              "type": "string"
            }
          ],
          "name": "proposalUpdate",
          "outputs": [],
          "stateMutability": "nonpayable",
          "type": "function"
        }
      ],
      "evm": {
        "bytecode": {
          "linkReferences": {},
          "object": "608060405234801561001057600080fd5b506104de806100206000396000f3fe608060405234801561001057600080fd5b506004361061004c5760003560e01c80633fb7af8b146100515780634654b0c214610066578063809b407914610079578063819a38751461008c575b600080fd5b61006461005f3660046102e5565b61009f565b005b610064610074366004610286565b61010b565b610064610087366004610363565b610168565b61006461009a3660046102e5565b6101c6565b83836040516100af929190610433565b6040518091039020856001600160a01b0316336001600160a01b03167f64ebc682099ed1ff865723beea5a976374b2b2cff42aeb60fa6b122efe225dc785856040516100fc929190610443565b60405180910390a45050505050565b826001600160a01b0316846001600160a01b0316336001600160a01b03167ff13b2bd41da66539dd39a23db46ebe1843cbf64df230f9dcdc8e9fb00b7d62d3858560405161015a929190610443565b60405180910390a450505050565b866001600160a01b0316336001600160a01b03167f0beec71c6656a11b15a82f914d3e7a6c30cab301a8e2e1c02397c779204e24f58888888888886040516101b59695949392919061045f565b60405180910390a350505050505050565b83836040516101d6929190610433565b6040518091039020856001600160a01b0316336001600160a01b03167fbe428c0483fdd706041a9aaebe6c3a51a8f486ca36a54b9ca2be51df2a6b60b685856040516100fc929190610443565b80356001600160a01b038116811461023a57600080fd5b919050565b60008083601f840112610250578182fd5b50813567ffffffffffffffff811115610267578182fd5b60208301915083602082850101111561027f57600080fd5b9250929050565b6000806000806060858703121561029b578384fd5b6102a485610223565b93506102b260208601610223565b9250604085013567ffffffffffffffff8111156102cd578283fd5b6102d98782880161023f565b95989497509550505050565b6000806000806000606086880312156102fc578081fd5b61030586610223565b9450602086013567ffffffffffffffff80821115610321578283fd5b61032d89838a0161023f565b90965094506040880135915080821115610345578283fd5b506103528882890161023f565b969995985093965092949392505050565b60008060008060008060006080888a03121561037d578182fd5b61038688610223565b9650602088013567ffffffffffffffff808211156103a2578384fd5b6103ae8b838c0161023f565b909850965060408a01359150808211156103c6578384fd5b6103d28b838c0161023f565b909650945060608a01359150808211156103ea578384fd5b506103f78a828b0161023f565b989b979a50959850939692959293505050565b81835281816020850137506000828201602090810191909152601f909101601f19169091010190565b8183823760009101908152919050565b60208152600061045760208301848661040a565b949350505050565b60608152600061047360608301888a61040a565b828103602084015261048681878961040a565b9050828103604084015261049b81858761040a565b999850505050505050505056fea2646970667358221220581c462ed05231f85b26946ebaaa9e5b037aceebf39e842101fc84a80094bc6f64736f6c63430008040033",
          "opcodes": "PUSH1 0x80 PUSH1 0x40 MSTORE CALLVALUE DUP1 ISZERO PUSH2 0x10 JUMPI PUSH1 0x0 DUP1 REVERT JUMPDEST POP PUSH2 0x4DE DUP1 PUSH2 0x20 PUSH1 0x0 CODECOPY PUSH1 0x0 RETURN INVALID PUSH1 0x80 PUSH1 0x40 MSTORE CALLVALUE DUP1 ISZERO PUSH2 0x10 JUMPI PUSH1 0x0 DUP1 REVERT JUMPDEST POP PUSH1 0x4 CALLDATASIZE LT PUSH2 0x4C JUMPI PUSH1 0x0 CALLDATALOAD PUSH1 0xE0 SHR DUP1 PUSH4 0x3FB7AF8B EQ PUSH2 0x51 JUMPI DUP1 PUSH4 0x4654B0C2 EQ PUSH2 0x66 JUMPI DUP1 PUSH4 0x809B4079 EQ PUSH2 0x79 JUMPI DUP1 PUSH4 0x819A3875 EQ PUSH2 0x8C JUMPI JUMPDEST PUSH1 0x0 DUP1 REVERT JUMPDEST PUSH2 0x64 PUSH2 0x5F CALLDATASIZE PUSH1 0x4 PUSH2 0x2E5 JUMP JUMPDEST PUSH2 0x9F JUMP JUMPDEST STOP JUMPDEST PUSH2 0x64 PUSH2 0x74 CALLDATASIZE PUSH1 0x4 PUSH2 0x286 JUMP JUMPDEST PUSH2 0x10B JUMP JUMPDEST PUSH2 0x64 PUSH2 0x87 CALLDATASIZE PUSH1 0x4 PUSH2 0x363 JUMP JUMPDEST PUSH2 0x168 JUMP JUMPDEST PUSH2 0x64 PUSH2 0x9A CALLDATASIZE PUSH1 0x4 PUSH2 0x2E5 JUMP JUMPDEST PUSH2 0x1C6 JUMP JUMPDEST DUP4 DUP4 PUSH1 0x40 MLOAD PUSH2 0xAF SWAP3 SWAP2 SWAP1 PUSH2 0x433 JUMP JUMPDEST PUSH1 0x40 MLOAD DUP1 SWAP2 SUB SWAP1 KECCAK256 DUP6 PUSH1 0x1 PUSH1 0x1 PUSH1 0xA0 SHL SUB AND CALLER PUSH1 0x1 PUSH1 0x1 PUSH1 0xA0 SHL SUB AND PUSH32 0x64EBC682099ED1FF865723BEEA5A976374B2B2CFF42AEB60FA6B122EFE225DC7 DUP6 DUP6 PUSH1 0x40 MLOAD PUSH2 0xFC SWAP3 SWAP2 SWAP1 PUSH2 0x443 JUMP JUMPDEST PUSH1 0x40 MLOAD DUP1 SWAP2 SUB SWAP1 LOG4 POP POP POP POP POP JUMP JUMPDEST DUP3 PUSH1 0x1 PUSH1 0x1 PUSH1 0xA0 SHL SUB AND DUP5 PUSH1 0x1 PUSH1 0x1 PUSH1 0xA0 SHL SUB AND CALLER PUSH1 0x1 PUSH1 0x1 PUSH1 0xA0 SHL SUB AND PUSH32 0xF13B2BD41DA66539DD39A23DB46EBE1843CBF64DF230F9DCDC8E9FB00B7D62D3 DUP6 DUP6 PUSH1 0x40 MLOAD PUSH2 0x15A SWAP3 SWAP2 SWAP1 PUSH2 0x443 JUMP JUMPDEST PUSH1 0x40 MLOAD DUP1 SWAP2 SUB SWAP1 LOG4 POP POP POP POP JUMP JUMPDEST DUP7 PUSH1 0x1 PUSH1 0x1 PUSH1 0xA0 SHL SUB AND CALLER PUSH1 0x1 PUSH1 0x1 PUSH1 0xA0 SHL SUB AND PUSH32 0xBEEC71C6656A11B15A82F914D3E7A6C30CAB301A8E2E1C02397C779204E24F5 DUP9 DUP9 DUP9 DUP9 DUP9 DUP9 PUSH1 0x40 MLOAD PUSH2 0x1B5 SWAP7 SWAP6 SWAP5 SWAP4 SWAP3 SWAP2 SWAP1 PUSH2 0x45F JUMP JUMPDEST PUSH1 0x40 MLOAD DUP1 SWAP2 SUB SWAP1 LOG3 POP POP POP POP POP POP POP JUMP JUMPDEST DUP4 DUP4 PUSH1 0x40 MLOAD PUSH2 0x1D6 SWAP3 SWAP2 SWAP1 PUSH2 0x433 JUMP JUMPDEST PUSH1 0x40 MLOAD DUP1 SWAP2 SUB SWAP1 KECCAK256 DUP6 PUSH1 0x1 PUSH1 0x1 PUSH1 0xA0 SHL SUB AND CALLER PUSH1 0x1 PUSH1 0x1 PUSH1 0xA0 SHL SUB AND PUSH32 0xBE428C0483FDD706041A9AAEBE6C3A51A8F486CA36A54B9CA2BE51DF2A6B60B6 DUP6 DUP6 PUSH1 0x40 MLOAD PUSH2 0xFC SWAP3 SWAP2 SWAP1 PUSH2 0x443 JUMP JUMPDEST DUP1 CALLDATALOAD PUSH1 0x1 PUSH1 0x1 PUSH1 0xA0 SHL SUB DUP2 AND DUP2 EQ PUSH2 0x23A JUMPI PUSH1 0x0 DUP1 REVERT JUMPDEST SWAP2 SWAP1 POP JUMP JUMPDEST PUSH1 0x0 DUP1 DUP4 PUSH1 0x1F DUP5 ADD SLT PUSH2 0x250 JUMPI DUP2 DUP3 REVERT JUMPDEST POP DUP2 CALLDATALOAD PUSH8 0xFFFFFFFFFFFFFFFF DUP2 GT ISZERO PUSH2 0x267 JUMPI DUP2 DUP3 REVERT JUMPDEST PUSH1 0x20 DUP4 ADD SWAP2 POP DUP4 PUSH1 0x20 DUP3 DUP6 ADD ADD GT ISZERO PUSH2 0x27F JUMPI PUSH1 0x0 DUP1 REVERT JUMPDEST SWAP3 POP SWAP3 SWAP1 POP JUMP JUMPDEST PUSH1 0x0 DUP1 PUSH1 0x0 DUP1 PUSH1 0x60 DUP6 DUP8 SUB SLT ISZERO PUSH2 0x29B JUMPI DUP4 DUP5 REVERT JUMPDEST PUSH2 0x2A4 DUP6 PUSH2 0x223 JUMP JUMPDEST SWAP4 POP PUSH2 0x2B2 PUSH1 0x20 DUP7 ADD PUSH2 0x223 JUMP JUMPDEST SWAP3 POP PUSH1 0x40 DUP6 ADD CALLDATALOAD PUSH8 0xFFFFFFFFFFFFFFFF DUP2 GT ISZERO PUSH2 0x2CD JUMPI DUP3 DUP4 REVERT JUMPDEST PUSH2 0x2D9 DUP8 DUP3 DUP9 ADD PUSH2 0x23F JUMP JUMPDEST SWAP6 SWAP9 SWAP5 SWAP8 POP SWAP6 POP POP POP POP JUMP JUMPDEST PUSH1 0x0 DUP1 PUSH1 0x0 DUP1 PUSH1 0x0 PUSH1 0x60 DUP7 DUP9 SUB SLT ISZERO PUSH2 0x2FC JUMPI DUP1 DUP2 REVERT JUMPDEST PUSH2 0x305 DUP7 PUSH2 0x223 JUMP JUMPDEST SWAP5 POP PUSH1 0x20 DUP7 ADD CALLDATALOAD PUSH8 0xFFFFFFFFFFFFFFFF DUP1 DUP3 GT ISZERO PUSH2 0x321 JUMPI DUP3 DUP4 REVERT JUMPDEST PUSH2 0x32D DUP10 DUP4 DUP11 ADD PUSH2 0x23F JUMP JUMPDEST SWAP1 SWAP7 POP SWAP5 POP PUSH1 0x40 DUP9 ADD CALLDATALOAD SWAP2 POP DUP1 DUP3 GT ISZERO PUSH2 0x345 JUMPI DUP3 DUP4 REVERT JUMPDEST POP PUSH2 0x352 DUP9 DUP3 DUP10 ADD PUSH2 0x23F JUMP JUMPDEST SWAP7 SWAP10 SWAP6 SWAP9 POP SWAP4 SWAP7 POP SWAP3 SWAP5 SWAP4 SWAP3 POP POP POP JUMP JUMPDEST PUSH1 0x0 DUP1 PUSH1 0x0 DUP1 PUSH1 0x0 DUP1 PUSH1 0x0 PUSH1 0x80 DUP9 DUP11 SUB SLT ISZERO PUSH2 0x37D JUMPI DUP2 DUP3 REVERT JUMPDEST PUSH2 0x386 DUP9 PUSH2 0x223 JUMP JUMPDEST SWAP7 POP PUSH1 0x20 DUP9 ADD CALLDATALOAD PUSH8 0xFFFFFFFFFFFFFFFF DUP1 DUP3 GT ISZERO PUSH2 0x3A2 JUMPI DUP4 DUP5 REVERT JUMPDEST PUSH2 0x3AE DUP12 DUP4 DUP13 ADD PUSH2 0x23F JUMP JUMPDEST SWAP1 SWAP9 POP SWAP7 POP PUSH1 0x40 DUP11 ADD CALLDATALOAD SWAP2 POP DUP1 DUP3 GT ISZERO PUSH2 0x3C6 JUMPI DUP4 DUP5 REVERT JUMPDEST PUSH2 0x3D2 DUP12 DUP4 DUP13 ADD PUSH2 0x23F JUMP JUMPDEST SWAP1 SWAP7 POP SWAP5 POP PUSH1 0x60 DUP11 ADD CALLDATALOAD SWAP2 POP DUP1 DUP3 GT ISZERO PUSH2 0x3EA JUMPI DUP4 DUP5 REVERT JUMPDEST POP PUSH2 0x3F7 DUP11 DUP3 DUP12 ADD PUSH2 0x23F JUMP JUMPDEST SWAP9 SWAP12 SWAP8 SWAP11 POP SWAP6 SWAP9 POP SWAP4 SWAP7 SWAP3 SWAP6 SWAP3 SWAP4 POP POP POP JUMP JUMPDEST DUP2 DUP4 MSTORE DUP2 DUP2 PUSH1 0x20 DUP6 ADD CALLDATACOPY POP PUSH1 0x0 DUP3 DUP3 ADD PUSH1 0x20 SWAP1 DUP2 ADD SWAP2 SWAP1 SWAP2 MSTORE PUSH1 0x1F SWAP1 SWAP2 ADD PUSH1 0x1F NOT AND SWAP1 SWAP2 ADD ADD SWAP1 JUMP JUMPDEST DUP2 DUP4 DUP3 CALLDATACOPY PUSH1 0x0 SWAP2 ADD SWAP1 DUP2 MSTORE SWAP2 SWAP1 POP JUMP JUMPDEST PUSH1 0x20 DUP2 MSTORE PUSH1 0x0 PUSH2 0x457 PUSH1 0x20 DUP4 ADD DUP5 DUP7 PUSH2 0x40A JUMP JUMPDEST SWAP5 SWAP4 POP POP POP POP JUMP JUMPDEST PUSH1 0x60 DUP2 MSTORE PUSH1 0x0 PUSH2 0x473 PUSH1 0x60 DUP4 ADD DUP9 DUP11 PUSH2 0x40A JUMP JUMPDEST DUP3 DUP2 SUB PUSH1 0x20 DUP5 ADD MSTORE PUSH2 0x486 DUP2 DUP8 DUP10 PUSH2 0x40A JUMP JUMPDEST SWAP1 POP DUP3 DUP2 SUB PUSH1 0x40 DUP5 ADD MSTORE PUSH2 0x49B DUP2 DUP6 DUP8 PUSH2 0x40A JUMP JUMPDEST SWAP10 SWAP9 POP POP POP POP POP POP POP POP POP JUMP INVALID LOG2 PUSH5 0x6970667358 0x22 SLT KECCAK256 PC SHR CHAINID 0x2E 0xD0 MSTORE BALANCE 0xF8 JUMPDEST 0x26 SWAP5 PUSH15 0xBAAA9E5B037ACEEBF39E842101FC84 0xA8 STOP SWAP5 0xBC PUSH16 0x64736F6C634300080400330000000000 "
        },
        "methodIdentifiers": {
          "activityLogUpdate(address,string,string)": "819a3875",
          "daoUpdate(address,string,string,string)": "809b4079",
          "memberUpdate(address,address,string)": "4654b0c2",
          "proposalUpdate(address,string,string)": "3fb7af8b"
        }
      }
    }
  }
}