{
  "contracts/ERC4824.sol": {
    "ERC4824": {
      "abi": [
        {
          "anonymous": false,
          "inputs": [
            {
              "indexed": true,
              "internalType": "address",
              "name": "sender",
              "type": "address"
            },
            {
              "indexed": true,
              "internalType": "address",
              "name": "dao",
              "type": "address"
            },
            {
              "indexed": true,
              "internalType": "string",
              "name": "activityId",
              "type": "string"
            },
            {
              "indexed": false,
              "internalType": "string",
              "name": "activityLogURI",
              "type": "string"
            }
          ],
          "name": "ActivityLogUpdate",
          "type": "event"
        },
        {
          "anonymous": false,
          "inputs": [
            {
              "indexed": true,
              "internalType": "address",
              "name": "sender",
              "type": "address"
            },
            {
              "indexed": true,
              "internalType": "address",
              "name": "dao",
              "type": "address"
            },
            {
              "indexed": false,
              "internalType": "string",
              "name": "name",
              "type": "string"
            },
            {
              "indexed": false,
              "internalType": "string",
              "name": "description",
              "type": "string"
            },
            {
              "indexed": false,
              "internalType": "string",
              "name": "governanceURI",
              "type": "string"
            }
          ],
          "name": "DAOUpdate",
          "type": "event"
        },
        {
          "anonymous": false,
          "inputs": [
            {
              "indexed": true,
              "internalType": "address",
              "name": "sender",
              "type": "address"
            },
            {
              "indexed": true,
              "internalType": "address",
              "name": "dao",
              "type": "address"
            },
            {
              "indexed": true,
              "internalType": "address",
              "name": "member",
              "type": "address"
            },
            {
              "indexed": false,
              "internalType": "string",
              "name": "memberURI",
              "type": "string"
            }
          ],
          "name": "MemberUpdate",
          "type": "event"
        },
        {
          "anonymous": false,
          "inputs": [
            {
              "indexed": true,
              "internalType": "address",
              "name": "sender",
              "type": "address"
            },
            {
              "indexed": true,
              "internalType": "address",
              "name": "dao",
              "type": "address"
            },
            {
              "indexed": true,
              "internalType": "string",
              "name": "proposalId",
              "type": "string"
            },
            {
              "indexed": false,
              "internalType": "string",
              "name": "proposalURI",
              "type": "string"
            }
          ],
          "name": "ProposalUpdate",
          "type": "event"
        },
        {
          "anonymous": false,
          "inputs": [
            {
              "indexed": true,
              "internalType": "address",
              "name": "sender",
              "type": "address"
            },
            {
              "indexed": true,
              "internalType": "string",
              "name": "indexedSchemaURI",
              "type": "string"
            },
            {
              "indexed": false,
              "internalType": "string",
              "name": "name",
              "type": "string"
            },
            {
              "indexed": false,
              "internalType": "string",
              "name": "description",
              "type": "string"
            },
            {
              "indexed": false,
              "internalType": "string",
              "name": "schemaURI",
              "type": "string"
            }
          ],
          "name": "SchemaUpdate",
          "type": "event"
        },
        {
          "inputs": [
            {
              "internalType": "address",
              "name": "dao",
              "type": "address"
            },
            {
              "internalType": "string",
              "name": "activityId",
              "type": "string"
            },
            {
              "internalType": "string",
              "name": "activityLogURI",
              "type": "string"
            }
          ],
          "name": "activityLogUpdate",
          "outputs": [],
          "stateMutability": "nonpayable",
          "type": "function"
        },
        {
          "inputs": [
            {
              "internalType": "address",
              "name": "dao",
              "type": "address"
            },
            {
              "internalType": "string",
              "name": "name",
              "type": "string"
            },
            {
              "internalType": "string",
              "name": "description",
              "type": "string"
            },
            {
              "internalType": "string",
              "name": "governanceURI",
              "type": "string"
            }
          ],
          "name": "daoUpdate",
          "outputs": [],
          "stateMutability": "nonpayable",
          "type": "function"
        },
        {
          "inputs": [
            {
              "internalType": "address",
              "name": "dao",
              "type": "address"
            },
            {
              "internalType": "address",
              "name": "member",
              "type": "address"
            },
            {
              "internalType": "string",
              "name": "memberURI",
              "type": "string"
            }
          ],
          "name": "memberUpdate",
          "outputs": [],
          "stateMutability": "nonpayable",
          "type": "function"
        },
        {
          "inputs": [
            {
              "internalType": "address",
              "name": "dao",
              "type": "address"
            },
            {
              "internalType": "string",
              "name": "proposalId",
              "type": "string"
            },
            {
              "internalType": "string",
              "name": "proposalURI",
              "type": "string"
            }
          ],
          "name": "proposalUpdate",
          "outputs": [],
          "stateMutability": "nonpayable",
          "type": "function"
        },
        {
          "inputs": [
            {
              "internalType": "string",
              "name": "name",
              "type": "string"
            },
            {
              "internalType": "string",
              "name": "description",
              "type": "string"
            },
            {
              "internalType": "string",
              "name": "schemaURI",
              "type": "string"
            }
          ],
          "name": "schemaUpdate",
          "outputs": [],
          "stateMutability": "nonpayable",
          "type": "function"
        }
      ],
      "evm": {
        "bytecode": {
          "linkReferences": {},
          "object": "608060405234801561001057600080fd5b506105fd806100206000396000f3fe608060405234801561001057600080fd5b50600436106100575760003560e01c80633fb7af8b1461005c5780634654b0c214610071578063809b407914610084578063819a387514610097578063e5a4d9b7146100aa575b600080fd5b61006f61006a36600461036e565b6100bd565b005b61006f61007f36600461030f565b610129565b61006f6100923660046103ec565b610186565b61006f6100a536600461036e565b6101e4565b61006f6100b8366004610493565b610241565b83836040516100cd929190610552565b6040518091039020856001600160a01b0316336001600160a01b03167f64ebc682099ed1ff865723beea5a976374b2b2cff42aeb60fa6b122efe225dc7858560405161011a929190610562565b60405180910390a45050505050565b826001600160a01b0316846001600160a01b0316336001600160a01b03167ff13b2bd41da66539dd39a23db46ebe1843cbf64df230f9dcdc8e9fb00b7d62d38585604051610178929190610562565b60405180910390a450505050565b866001600160a01b0316336001600160a01b03167f0beec71c6656a11b15a82f914d3e7a6c30cab301a8e2e1c02397c779204e24f58888888888886040516101d39695949392919061057e565b60405180910390a350505050505050565b83836040516101f4929190610552565b6040518091039020856001600160a01b0316336001600160a01b03167fbe428c0483fdd706041a9aaebe6c3a51a8f486ca36a54b9ca2be51df2a6b60b6858560405161011a929190610562565b8181604051610251929190610552565b6040518091039020336001600160a01b03167fd957cfb910e28bb827b9628a8a99faf9035c803bf06410f0223b65b231fea46088888888888860405161029c9695949392919061057e565b60405180910390a3505050505050565b80356001600160a01b03811681146102c357600080fd5b919050565b60008083601f8401126102d9578182fd5b50813567ffffffffffffffff8111156102f0578182fd5b60208301915083602082850101111561030857600080fd5b9250929050565b60008060008060608587031215610324578384fd5b61032d856102ac565b935061033b602086016102ac565b9250604085013567ffffffffffffffff811115610356578283fd5b610362878288016102c8565b95989497509550505050565b600080600080600060608688031215610385578081fd5b61038e866102ac565b9450602086013567ffffffffffffffff808211156103aa578283fd5b6103b689838a016102c8565b909650945060408801359150808211156103ce578283fd5b506103db888289016102c8565b969995985093965092949392505050565b60008060008060008060006080888a031215610406578182fd5b61040f886102ac565b9650602088013567ffffffffffffffff8082111561042b578384fd5b6104378b838c016102c8565b909850965060408a013591508082111561044f578384fd5b61045b8b838c016102c8565b909650945060608a0135915080821115610473578384fd5b506104808a828b016102c8565b989b979a50959850939692959293505050565b600080600080600080606087890312156104ab578182fd5b863567ffffffffffffffff808211156104c2578384fd5b6104ce8a838b016102c8565b909850965060208901359150808211156104e6578384fd5b6104f28a838b016102c8565b9096509450604089013591508082111561050a578384fd5b5061051789828a016102c8565b979a9699509497509295939492505050565b81835281816020850137506000828201602090810191909152601f909101601f19169091010190565b8183823760009101908152919050565b602081526000610576602083018486610529565b949350505050565b60608152600061059260608301888a610529565b82810360208401526105a5818789610529565b905082810360408401526105ba818587610529565b999850505050505050505056fea26469706673582212202896bc605cf8aca60fe3a66fb871393800fd48268c55b3a6a54a094183ccf7ad64736f6c63430008040033",
          "opcodes": "PUSH1 0x80 PUSH1 0x40 MSTORE CALLVALUE DUP1 ISZERO PUSH2 0x10 JUMPI PUSH1 0x0 DUP1 REVERT JUMPDEST POP PUSH2 0x5FD DUP1 PUSH2 0x20 PUSH1 0x0 CODECOPY PUSH1 0x0 RETURN INVALID PUSH1 0x80 PUSH1 0x40 MSTORE CALLVALUE DUP1 ISZERO PUSH2 0x10 JUMPI PUSH1 0x0 DUP1 REVERT JUMPDEST POP PUSH1 0x4 CALLDATASIZE LT PUSH2 0x57 JUMPI PUSH1 0x0 CALLDATALOAD PUSH1 0xE0 SHR DUP1 PUSH4 0x3FB7AF8B EQ PUSH2 0x5C JUMPI DUP1 PUSH4 0x4654B0C2 EQ PUSH2 0x71 JUMPI DUP1 PUSH4 0x809B4079 EQ PUSH2 0x84 JUMPI DUP1 PUSH4 0x819A3875 EQ PUSH2 0x97 JUMPI DUP1 PUSH4 0xE5A4D9B7 EQ PUSH2 0xAA JUMPI JUMPDEST PUSH1 0x0 DUP1 REVERT JUMPDEST PUSH2 0x6F PUSH2 0x6A CALLDATASIZE PUSH1 0x4 PUSH2 0x36E JUMP JUMPDEST PUSH2 0xBD JUMP JUMPDEST STOP JUMPDEST PUSH2 0x6F PUSH2 0x7F CALLDATASIZE PUSH1 0x4 PUSH2 0x30F JUMP JUMPDEST PUSH2 0x129 JUMP JUMPDEST PUSH2 0x6F PUSH2 0x92 CALLDATASIZE PUSH1 0x4 PUSH2 0x3EC JUMP JUMPDEST PUSH2 0x186 JUMP JUMPDEST PUSH2 0x6F PUSH2 0xA5 CALLDATASIZE PUSH1 0x4 PUSH2 0x36E JUMP JUMPDEST PUSH2 0x1E4 JUMP JUMPDEST PUSH2 0x6F PUSH2 0xB8 CALLDATASIZE PUSH1 0x4 PUSH2 0x493 JUMP JUMPDEST PUSH2 0x241 JUMP JUMPDEST DUP4 DUP4 PUSH1 0x40 MLOAD PUSH2 0xCD SWAP3 SWAP2 SWAP1 PUSH2 0x552 JUMP JUMPDEST PUSH1 0x40 MLOAD DUP1 SWAP2 SUB SWAP1 KECCAK256 DUP6 PUSH1 0x1 PUSH1 0x1 PUSH1 0xA0 SHL SUB AND CALLER PUSH1 0x1 PUSH1 0x1 PUSH1 0xA0 SHL SUB AND PUSH32 0x64EBC682099ED1FF865723BEEA5A976374B2B2CFF42AEB60FA6B122EFE225DC7 DUP6 DUP6 PUSH1 0x40 MLOAD PUSH2 0x11A SWAP3 SWAP2 SWAP1 PUSH2 0x562 JUMP JUMPDEST PUSH1 0x40 MLOAD DUP1 SWAP2 SUB SWAP1 LOG4 POP POP POP POP POP JUMP JUMPDEST DUP3 PUSH1 0x1 PUSH1 0x1 PUSH1 0xA0 SHL SUB AND DUP5 PUSH1 0x1 PUSH1 0x1 PUSH1 0xA0 SHL SUB AND CALLER PUSH1 0x1 PUSH1 0x1 PUSH1 0xA0 SHL SUB AND PUSH32 0xF13B2BD41DA66539DD39A23DB46EBE1843CBF64DF230F9DCDC8E9FB00B7D62D3 DUP6 DUP6 PUSH1 0x40 MLOAD PUSH2 0x178 SWAP3 SWAP2 SWAP1 PUSH2 0x562 JUMP JUMPDEST PUSH1 0x40 MLOAD DUP1 SWAP2 SUB SWAP1 LOG4 POP POP POP POP JUMP JUMPDEST DUP7 PUSH1 0x1 PUSH1 0x1 PUSH1 0xA0 SHL SUB AND CALLER PUSH1 0x1 PUSH1 0x1 PUSH1 0xA0 SHL SUB AND PUSH32 0xBEEC71C6656A11B15A82F914D3E7A6C30CAB301A8E2E1C02397C779204E24F5 DUP9 DUP9 DUP9 DUP9 DUP9 DUP9 PUSH1 0x40 MLOAD PUSH2 0x1D3 SWAP7 SWAP6 SWAP5 SWAP4 SWAP3 SWAP2 SWAP1 PUSH2 0x57E JUMP JUMPDEST PUSH1 0x40 MLOAD DUP1 SWAP2 SUB SWAP1 LOG3 POP POP POP POP POP POP POP JUMP JUMPDEST DUP4 DUP4 PUSH1 0x40 MLOAD PUSH2 0x1F4 SWAP3 SWAP2 SWAP1 PUSH2 0x552 JUMP JUMPDEST PUSH1 0x40 MLOAD DUP1 SWAP2 SUB SWAP1 KECCAK256 DUP6 PUSH1 0x1 PUSH1 0x1 PUSH1 0xA0 SHL SUB AND CALLER PUSH1 0x1 PUSH1 0x1 PUSH1 0xA0 SHL SUB AND PUSH32 0xBE428C0483FDD706041A9AAEBE6C3A51A8F486CA36A54B9CA2BE51DF2A6B60B6 DUP6 DUP6 PUSH1 0x40 MLOAD PUSH2 0x11A SWAP3 SWAP2 SWAP1 PUSH2 0x562 JUMP JUMPDEST DUP2 DUP2 PUSH1 0x40 MLOAD PUSH2 0x251 SWAP3 SWAP2 SWAP1 PUSH2 0x552 JUMP JUMPDEST PUSH1 0x40 MLOAD DUP1 SWAP2 SUB SWAP1 KECCAK256 CALLER PUSH1 0x1 PUSH1 0x1 PUSH1 0xA0 SHL SUB AND PUSH32 0xD957CFB910E28BB827B9628A8A99FAF9035C803BF06410F0223B65B231FEA460 DUP9 DUP9 DUP9 DUP9 DUP9 DUP9 PUSH1 0x40 MLOAD PUSH2 0x29C SWAP7 SWAP6 SWAP5 SWAP4 SWAP3 SWAP2 SWAP1 PUSH2 0x57E JUMP JUMPDEST PUSH1 0x40 MLOAD DUP1 SWAP2 SUB SWAP1 LOG3 POP POP POP POP POP POP JUMP JUMPDEST DUP1 CALLDATALOAD PUSH1 0x1 PUSH1 0x1 PUSH1 0xA0 SHL SUB DUP2 AND DUP2 EQ PUSH2 0x2C3 JUMPI PUSH1 0x0 DUP1 REVERT JUMPDEST SWAP2 SWAP1 POP JUMP JUMPDEST PUSH1 0x0 DUP1 DUP4 PUSH1 0x1F DUP5 ADD SLT PUSH2 0x2D9 JUMPI DUP2 DUP3 REVERT JUMPDEST POP DUP2 CALLDATALOAD PUSH8 0xFFFFFFFFFFFFFFFF DUP2 GT ISZERO PUSH2 0x2F0 JUMPI DUP2 DUP3 REVERT JUMPDEST PUSH1 0x20 DUP4 ADD SWAP2 POP DUP4 PUSH1 0x20 DUP3 DUP6 ADD ADD GT ISZERO PUSH2 0x308 JUMPI PUSH1 0x0 DUP1 REVERT JUMPDEST SWAP3 POP SWAP3 SWAP1 POP JUMP JUMPDEST PUSH1 0x0 DUP1 PUSH1 0x0 DUP1 PUSH1 0x60 DUP6 DUP8 SUB SLT ISZERO PUSH2 0x324 JUMPI DUP4 DUP5 REVERT JUMPDEST PUSH2 0x32D DUP6 PUSH2 0x2AC JUMP JUMPDEST SWAP4 POP PUSH2 0x33B PUSH1 0x20 DUP7 ADD PUSH2 0x2AC JUMP JUMPDEST SWAP3 POP PUSH1 0x40 DUP6 ADD CALLDATALOAD PUSH8 0xFFFFFFFFFFFFFFFF DUP2 GT ISZERO PUSH2 0x356 JUMPI DUP3 DUP4 REVERT JUMPDEST PUSH2 0x362 DUP8 DUP3 DUP9 ADD PUSH2 0x2C8 JUMP JUMPDEST SWAP6 SWAP9 SWAP5 SWAP8 POP SWAP6 POP POP POP POP JUMP JUMPDEST PUSH1 0x0 DUP1 PUSH1 0x0 DUP1 PUSH1 0x0 PUSH1 0x60 DUP7 DUP9 SUB SLT ISZERO PUSH2 0x385 JUMPI DUP1 DUP2 REVERT JUMPDEST PUSH2 0x38E DUP7 PUSH2 0x2AC JUMP JUMPDEST SWAP5 POP PUSH1 0x20 DUP7 ADD CALLDATALOAD PUSH8 0xFFFFFFFFFFFFFFFF DUP1 DUP3 GT ISZERO PUSH2 0x3AA JUMPI DUP3 DUP4 REVERT JUMPDEST PUSH2 0x3B6 DUP10 DUP4 DUP11 ADD PUSH2 0x2C8 JUMP JUMPDEST SWAP1 SWAP7 POP SWAP5 POP PUSH1 0x40 DUP9 ADD CALLDATALOAD SWAP2 POP DUP1 DUP3 GT ISZERO PUSH2 0x3CE JUMPI DUP3 DUP4 REVERT JUMPDEST POP PUSH2 0x3DB DUP9 DUP3 DUP10 ADD PUSH2 0x2C8 JUMP JUMPDEST SWAP7 SWAP10 SWAP6 SWAP9 POP SWAP4 SWAP7 POP SWAP3 SWAP5 SWAP4 SWAP3 POP POP POP JUMP JUMPDEST PUSH1 0x0 DUP1 PUSH1 0x0 DUP1 PUSH1 0x0 DUP1 PUSH1 0x0 PUSH1 0x80 DUP9 DUP11 SUB SLT ISZERO PUSH2 0x406 JUMPI DUP2 DUP3 REVERT JUMPDEST PUSH2 0x40F DUP9 PUSH2 0x2AC JUMP JUMPDEST SWAP7 POP PUSH1 0x20 DUP9 ADD CALLDATALOAD PUSH8 0xFFFFFFFFFFFFFFFF DUP1 DUP3 GT ISZERO PUSH2 0x42B JUMPI DUP4 DUP5 REVERT JUMPDEST PUSH2 0x437 DUP12 DUP4 DUP13 ADD PUSH2 0x2C8 JUMP JUMPDEST SWAP1 SWAP9 POP SWAP7 POP PUSH1 0x40 DUP11 ADD CALLDATALOAD SWAP2 POP DUP1 DUP3 GT ISZERO PUSH2 0x44F JUMPI DUP4 DUP5 REVERT JUMPDEST PUSH2 0x45B DUP12 DUP4 DUP13 ADD PUSH2 0x2C8 JUMP JUMPDEST SWAP1 SWAP7 POP SWAP5 POP PUSH1 0x60 DUP11 ADD CALLDATALOAD SWAP2 POP DUP1 DUP3 GT ISZERO PUSH2 0x473 JUMPI DUP4 DUP5 REVERT JUMPDEST POP PUSH2 0x480 DUP11 DUP3 DUP12 ADD PUSH2 0x2C8 JUMP JUMPDEST SWAP9 SWAP12 SWAP8 SWAP11 POP SWAP6 SWAP9 POP SWAP4 SWAP7 SWAP3 SWAP6 SWAP3 SWAP4 POP POP POP JUMP JUMPDEST PUSH1 0x0 DUP1 PUSH1 0x0 DUP1 PUSH1 0x0 DUP1 PUSH1 0x60 DUP8 DUP10 SUB SLT ISZERO PUSH2 0x4AB JUMPI DUP2 DUP3 REVERT JUMPDEST DUP7 CALLDATALOAD PUSH8 0xFFFFFFFFFFFFFFFF DUP1 DUP3 GT ISZERO PUSH2 0x4C2 JUMPI DUP4 DUP5 REVERT JUMPDEST PUSH2 0x4CE DUP11 DUP4 DUP12 ADD PUSH2 0x2C8 JUMP JUMPDEST SWAP1 SWAP9 POP SWAP7 POP PUSH1 0x20 DUP10 ADD CALLDATALOAD SWAP2 POP DUP1 DUP3 GT ISZERO PUSH2 0x4E6 JUMPI DUP4 DUP5 REVERT JUMPDEST PUSH2 0x4F2 DUP11 DUP4 DUP12 ADD PUSH2 0x2C8 JUMP JUMPDEST SWAP1 SWAP7 POP SWAP5 POP PUSH1 0x40 DUP10 ADD CALLDATALOAD SWAP2 POP DUP1 DUP3 GT ISZERO PUSH2 0x50A JUMPI DUP4 DUP5 REVERT JUMPDEST POP PUSH2 0x517 DUP10 DUP3 DUP11 ADD PUSH2 0x2C8 JUMP JUMPDEST SWAP8 SWAP11 SWAP7 SWAP10 POP SWAP5 SWAP8 POP SWAP3 SWAP6 SWAP4 SWAP5 SWAP3 POP POP POP JUMP JUMPDEST DUP2 DUP4 MSTORE DUP2 DUP2 PUSH1 0x20 DUP6 ADD CALLDATACOPY POP PUSH1 0x0 DUP3 DUP3 ADD PUSH1 0x20 SWAP1 DUP2 ADD SWAP2 SWAP1 SWAP2 MSTORE PUSH1 0x1F SWAP1 SWAP2 ADD PUSH1 0x1F NOT AND SWAP1 SWAP2 ADD ADD SWAP1 JUMP JUMPDEST DUP2 DUP4 DUP3 CALLDATACOPY PUSH1 0x0 SWAP2 ADD SWAP1 DUP2 MSTORE SWAP2 SWAP1 POP JUMP JUMPDEST PUSH1 0x20 DUP2 MSTORE PUSH1 0x0 PUSH2 0x576 PUSH1 0x20 DUP4 ADD DUP5 DUP7 PUSH2 0x529 JUMP JUMPDEST SWAP5 SWAP4 POP POP POP POP JUMP JUMPDEST PUSH1 0x60 DUP2 MSTORE PUSH1 0x0 PUSH2 0x592 PUSH1 0x60 DUP4 ADD DUP9 DUP11 PUSH2 0x529 JUMP JUMPDEST DUP3 DUP2 SUB PUSH1 0x20 DUP5 ADD MSTORE PUSH2 0x5A5 DUP2 DUP8 DUP10 PUSH2 0x529 JUMP JUMPDEST SWAP1 POP DUP3 DUP2 SUB PUSH1 0x40 DUP5 ADD MSTORE PUSH2 0x5BA DUP2 DUP6 DUP8 PUSH2 0x529 JUMP JUMPDEST SWAP10 SWAP9 POP POP POP POP POP POP POP POP POP JUMP INVALID LOG2 PUSH5 0x6970667358 0x22 SLT KECCAK256 0x28 SWAP7 0xBC PUSH1 0x5C 0xF8 0xAC 0xA6 0xF 0xE3 0xA6 PUSH16 0xB871393800FD48268C55B3A6A54A0941 DUP4 0xCC 0xF7 0xAD PUSH5 0x736F6C6343 STOP ADDMOD DIV STOP CALLER "
        },
        "methodIdentifiers": {
          "activityLogUpdate(address,string,string)": "819a3875",
          "daoUpdate(address,string,string,string)": "809b4079",
          "memberUpdate(address,address,string)": "4654b0c2",
          "proposalUpdate(address,string,string)": "3fb7af8b",
          "schemaUpdate(string,string,string)": "e5a4d9b7"
        }
      }
    }
  }
}