{
  "_format": "hh-sol-artifact-1",
  "contractName": "ERC4824",
  "sourceName": "contracts/ERC4824.sol",
  "abi": [
    {
      "anonymous": false,
      "inputs": [
        {
          "indexed": true,
          "internalType": "address",
          "name": "sender",
          "type": "address"
        },
        {
          "indexed": true,
          "internalType": "address",
          "name": "dao",
          "type": "address"
        },
        {
          "indexed": true,
          "internalType": "string",
          "name": "activityId",
          "type": "string"
        },
        {
          "indexed": false,
          "internalType": "string",
          "name": "activityLogURI",
          "type": "string"
        }
      ],
      "name": "ActivityLogUpdate",
      "type": "event"
    },
    {
      "anonymous": false,
      "inputs": [
        {
          "indexed": true,
          "internalType": "address",
          "name": "sender",
          "type": "address"
        },
        {
          "indexed": true,
          "internalType": "address",
          "name": "dao",
          "type": "address"
        },
        {
          "indexed": false,
          "internalType": "string",
          "name": "name",
          "type": "string"
        },
        {
          "indexed": false,
          "internalType": "string",
          "name": "description",
          "type": "string"
        },
        {
          "indexed": false,
          "internalType": "string",
          "name": "governanceURI",
          "type": "string"
        }
      ],
      "name": "DAOUpdate",
      "type": "event"
    },
    {
      "anonymous": false,
      "inputs": [
        {
          "indexed": true,
          "internalType": "address",
          "name": "sender",
          "type": "address"
        },
        {
          "indexed": true,
          "internalType": "address",
          "name": "dao",
          "type": "address"
        },
        {
          "indexed": true,
          "internalType": "address",
          "name": "member",
          "type": "address"
        },
        {
          "indexed": false,
          "internalType": "string",
          "name": "memberURI",
          "type": "string"
        }
      ],
      "name": "MemberUpdate",
      "type": "event"
    },
    {
      "anonymous": false,
      "inputs": [
        {
          "indexed": true,
          "internalType": "address",
          "name": "sender",
          "type": "address"
        },
        {
          "indexed": true,
          "internalType": "address",
          "name": "dao",
          "type": "address"
        },
        {
          "indexed": true,
          "internalType": "string",
          "name": "proposalId",
          "type": "string"
        },
        {
          "indexed": false,
          "internalType": "string",
          "name": "proposalURI",
          "type": "string"
        }
      ],
      "name": "ProposalUpdate",
      "type": "event"
    },
    {
      "anonymous": false,
      "inputs": [
        {
          "indexed": true,
          "internalType": "address",
          "name": "sender",
          "type": "address"
        },
        {
          "indexed": false,
          "internalType": "string",
          "name": "name",
          "type": "string"
        },
        {
          "indexed": false,
          "internalType": "string",
          "name": "description",
          "type": "string"
        },
        {
          "indexed": true,
          "internalType": "address",
          "name": "schemaURI",
          "type": "address"
        }
      ],
      "name": "SchemaUpdate",
      "type": "event"
    },
    {
      "inputs": [
        {
          "internalType": "address",
          "name": "dao",
          "type": "address"
        },
        {
          "internalType": "string",
          "name": "activityId",
          "type": "string"
        },
        {
          "internalType": "string",
          "name": "activityLogURI",
          "type": "string"
        }
      ],
      "name": "activityLogUpdate",
      "outputs": [],
      "stateMutability": "nonpayable",
      "type": "function"
    },
    {
      "inputs": [
        {
          "internalType": "address",
          "name": "dao",
          "type": "address"
        },
        {
          "internalType": "string",
          "name": "name",
          "type": "string"
        },
        {
          "internalType": "string",
          "name": "description",
          "type": "string"
        },
        {
          "internalType": "string",
          "name": "governanceURI",
          "type": "string"
        }
      ],
      "name": "daoUpdate",
      "outputs": [],
      "stateMutability": "nonpayable",
      "type": "function"
    },
    {
      "inputs": [
        {
          "internalType": "address",
          "name": "dao",
          "type": "address"
        },
        {
          "internalType": "address",
          "name": "member",
          "type": "address"
        },
        {
          "internalType": "string",
          "name": "memberURI",
          "type": "string"
        }
      ],
      "name": "memberUpdate",
      "outputs": [],
      "stateMutability": "nonpayable",
      "type": "function"
    },
    {
      "inputs": [
        {
          "internalType": "address",
          "name": "dao",
          "type": "address"
        },
        {
          "internalType": "string",
          "name": "proposalId",
          "type": "string"
        },
        {
          "internalType": "string",
          "name": "proposalURI",
          "type": "string"
        }
      ],
      "name": "proposalUpdate",
      "outputs": [],
      "stateMutability": "nonpayable",
      "type": "function"
    }
  ],
  "bytecode": "0x608060405234801561001057600080fd5b506104de806100206000396000f3fe608060405234801561001057600080fd5b506004361061004c5760003560e01c80633fb7af8b146100515780634654b0c214610066578063809b407914610079578063819a38751461008c575b600080fd5b61006461005f3660046102e5565b61009f565b005b610064610074366004610286565b61010b565b610064610087366004610363565b610168565b61006461009a3660046102e5565b6101c6565b83836040516100af929190610433565b6040518091039020856001600160a01b0316336001600160a01b03167f64ebc682099ed1ff865723beea5a976374b2b2cff42aeb60fa6b122efe225dc785856040516100fc929190610443565b60405180910390a45050505050565b826001600160a01b0316846001600160a01b0316336001600160a01b03167ff13b2bd41da66539dd39a23db46ebe1843cbf64df230f9dcdc8e9fb00b7d62d3858560405161015a929190610443565b60405180910390a450505050565b866001600160a01b0316336001600160a01b03167f0beec71c6656a11b15a82f914d3e7a6c30cab301a8e2e1c02397c779204e24f58888888888886040516101b59695949392919061045f565b60405180910390a350505050505050565b83836040516101d6929190610433565b6040518091039020856001600160a01b0316336001600160a01b03167fbe428c0483fdd706041a9aaebe6c3a51a8f486ca36a54b9ca2be51df2a6b60b685856040516100fc929190610443565b80356001600160a01b038116811461023a57600080fd5b919050565b60008083601f840112610250578182fd5b50813567ffffffffffffffff811115610267578182fd5b60208301915083602082850101111561027f57600080fd5b9250929050565b6000806000806060858703121561029b578384fd5b6102a485610223565b93506102b260208601610223565b9250604085013567ffffffffffffffff8111156102cd578283fd5b6102d98782880161023f565b95989497509550505050565b6000806000806000606086880312156102fc578081fd5b61030586610223565b9450602086013567ffffffffffffffff80821115610321578283fd5b61032d89838a0161023f565b90965094506040880135915080821115610345578283fd5b506103528882890161023f565b969995985093965092949392505050565b60008060008060008060006080888a03121561037d578182fd5b61038688610223565b9650602088013567ffffffffffffffff808211156103a2578384fd5b6103ae8b838c0161023f565b909850965060408a01359150808211156103c6578384fd5b6103d28b838c0161023f565b909650945060608a01359150808211156103ea578384fd5b506103f78a828b0161023f565b989b979a50959850939692959293505050565b81835281816020850137506000828201602090810191909152601f909101601f19169091010190565b8183823760009101908152919050565b60208152600061045760208301848661040a565b949350505050565b60608152600061047360608301888a61040a565b828103602084015261048681878961040a565b9050828103604084015261049b81858761040a565b999850505050505050505056fea2646970667358221220951b0e572902b2dab3e917fb602b5a8392ee0cd7cbfd45ef9c7f41a500e78f8364736f6c63430008040033",
  "linkReferences": {},
  "deployedLinkReferences": {}
}