{
  "_format": "hh-sol-artifact-1",
  "contractName": "ERC4824",
  "sourceName": "contracts/ERC4824.sol",
  "abi": [
    {
      "anonymous": false,
      "inputs": [
        {
          "indexed": true,
          "internalType": "address",
          "name": "sender",
          "type": "address"
        },
        {
          "indexed": true,
          "internalType": "address",
          "name": "dao",
          "type": "address"
        },
        {
          "indexed": true,
          "internalType": "string",
          "name": "activityId",
          "type": "string"
        },
        {
          "indexed": false,
          "internalType": "string",
          "name": "activityLogURI",
          "type": "string"
        }
      ],
      "name": "ActivityLogUpdate",
      "type": "event"
    },
    {
      "anonymous": false,
      "inputs": [
        {
          "indexed": true,
          "internalType": "address",
          "name": "sender",
          "type": "address"
        },
        {
          "indexed": true,
          "internalType": "address",
          "name": "dao",
          "type": "address"
        },
        {
          "indexed": false,
          "internalType": "string",
          "name": "name",
          "type": "string"
        },
        {
          "indexed": false,
          "internalType": "string",
          "name": "description",
          "type": "string"
        },
        {
          "indexed": false,
          "internalType": "string",
          "name": "governanceURI",
          "type": "string"
        }
      ],
      "name": "DAOUpdate",
      "type": "event"
    },
    {
      "anonymous": false,
      "inputs": [
        {
          "indexed": true,
          "internalType": "address",
          "name": "sender",
          "type": "address"
        },
        {
          "indexed": true,
          "internalType": "address",
          "name": "dao",
          "type": "address"
        },
        {
          "indexed": true,
          "internalType": "address",
          "name": "member",
          "type": "address"
        },
        {
          "indexed": false,
          "internalType": "string",
          "name": "memberURI",
          "type": "string"
        }
      ],
      "name": "MemberUpdate",
      "type": "event"
    },
    {
      "anonymous": false,
      "inputs": [
        {
          "indexed": true,
          "internalType": "address",
          "name": "sender",
          "type": "address"
        },
        {
          "indexed": true,
          "internalType": "address",
          "name": "dao",
          "type": "address"
        },
        {
          "indexed": true,
          "internalType": "string",
          "name": "proposalId",
          "type": "string"
        },
        {
          "indexed": false,
          "internalType": "string",
          "name": "proposalURI",
          "type": "string"
        }
      ],
      "name": "ProposalUpdate",
      "type": "event"
    },
    {
      "inputs": [
        {
          "internalType": "address",
          "name": "dao",
          "type": "address"
        },
        {
          "internalType": "string",
          "name": "activityId",
          "type": "string"
        },
        {
          "internalType": "string",
          "name": "activityLogURI",
          "type": "string"
        }
      ],
      "name": "activityLogUpdate",
      "outputs": [],
      "stateMutability": "nonpayable",
      "type": "function"
    },
    {
      "inputs": [
        {
          "internalType": "address",
          "name": "dao",
          "type": "address"
        },
        {
          "internalType": "string",
          "name": "name",
          "type": "string"
        },
        {
          "internalType": "string",
          "name": "description",
          "type": "string"
        },
        {
          "internalType": "string",
          "name": "governanceURI",
          "type": "string"
        }
      ],
      "name": "daoUpdate",
      "outputs": [],
      "stateMutability": "nonpayable",
      "type": "function"
    },
    {
      "inputs": [
        {
          "internalType": "address",
          "name": "dao",
          "type": "address"
        },
        {
          "internalType": "address",
          "name": "member",
          "type": "address"
        },
        {
          "internalType": "string",
          "name": "memberURI",
          "type": "string"
        }
      ],
      "name": "memberUpdate",
      "outputs": [],
      "stateMutability": "nonpayable",
      "type": "function"
    },
    {
      "inputs": [
        {
          "internalType": "address",
          "name": "dao",
          "type": "address"
        },
        {
          "internalType": "string",
          "name": "proposalId",
          "type": "string"
        },
        {
          "internalType": "string",
          "name": "proposalURI",
          "type": "string"
        }
      ],
      "name": "proposalUpdate",
      "outputs": [],
      "stateMutability": "nonpayable",
      "type": "function"
    }
  ],
  "bytecode": "0x608060405234801561001057600080fd5b50610dd4806100206000396000f3fe608060405234801561001057600080fd5b506004361061004c5760003560e01c80633fb7af8b146100515780634654b0c214610066578063809b407914610079578063819a38751461008c575b600080fd5b61006461005f36600461093c565b61009f565b005b6100646100743660046108dd565b61023d565b6100646100873660046109ba565b6103d0565b61006461009a36600461093c565b61060f565b6100c0604051806060016040528060228152602001610c0660229139610789565b83836040516100d0929190610ad5565b6040518091039020856001600160a01b0316336001600160a01b03167f64ebc682099ed1ff865723beea5a976374b2b2cff42aeb60fa6b122efe225dc7858560405161011d929190610ae5565b60405180910390a4610147604051806060016040528060258152602001610c9760259139336107cf565b6101866040518060400160405280601e81526020017f455243343832342070726f706f73616c5570646174653a2064616f203d200000815250866107cf565b6101de604051806060016040528060258152602001610be16025913985858080601f01602080910402602001604051908101604052809392919081815260200183838082843760009201919091525061081892505050565b610236604051806060016040528060268152602001610c286026913983838080601f01602080910402602001604051908101604052809392919081815260200183838082843760009201919091525061081892505050565b5050505050565b61027b6040518060400160405280602081526020017f45524334383234206265666f726520656d6974206d656d626572557064617465815250610789565b826001600160a01b0316846001600160a01b0316336001600160a01b03167ff13b2bd41da66539dd39a23db46ebe1843cbf64df230f9dcdc8e9fb00b7d62d385856040516102ca929190610ae5565b60405180910390a46102f4604051806060016040528060238152602001610d0e60239139336107cf565b6103336040518060400160405280601c81526020017f45524334383234206d656d6265725570646174653a2064616f203d2000000000815250856107cf565b6103726040518060400160405280601f81526020017f45524334383234206d656d6265725570646174653a206d656d626572203d2000815250846107cf565b6103ca604051806060016040528060268152602001610cbc6026913983838080601f01602080910402602001604051908101604052809392919081815260200183838082843760009201919091525061081892505050565b50505050565b61040e6040518060400160405280601e81526020017f455243343832343a206265666f726520656d69742044414f5570646174650000815250610789565b866001600160a01b0316336001600160a01b03167f0beec71c6656a11b15a82f914d3e7a6c30cab301a8e2e1c02397c779204e24f588888888888860405161045b96959493929190610b01565b60405180910390a36104a26040518060400160405280602081526020017f455243343832342064616f5570646174653a206d73672e73656e646572203d20815250336107cf565b6104e16040518060400160405280601981526020017f455243343832342064616f5570646174653a2064616f203d2000000000000000815250886107cf565b6105566040518060400160405280601a81526020017f455243343832342064616f5570646174653a206e616d65203d2000000000000081525087878080601f01602080910402602001604051908101604052809392919081815260200183838082843760009201919091525061081892505050565b6105ae604051806060016040528060218152602001610c4e6021913985858080601f01602080910402602001604051908101604052809392919081815260200183838082843760009201919091525061081892505050565b610606604051806060016040528060238152602001610bbe6023913983838080601f01602080910402602001604051908101604052809392919081815260200183838082843760009201919091525061081892505050565b50505050505050565b610630604051806060016040528060258152602001610d3160259139610789565b8383604051610640929190610ad5565b6040518091039020856001600160a01b0316336001600160a01b03167fbe428c0483fdd706041a9aaebe6c3a51a8f486ca36a54b9ca2be51df2a6b60b6858560405161068d929190610ae5565b60405180910390a46106b7604051806060016040528060288152602001610d7760289139336107cf565b6106d9604051806060016040528060218152602001610d5660219139866107cf565b610731604051806060016040528060288152602001610c6f6028913985858080601f01602080910402602001604051908101604052809392919081815260200183838082843760009201919091525061081892505050565b6102366040518060600160405280602c8152602001610ce2602c913983838080601f01602080910402602001604051908101604052809392919081815260200183838082843760009201919091525061081892505050565b6107cc8160405160240161079d9190610b4a565b60408051601f198184030181529190526020810180516001600160e01b031663104c13eb60e21b179052610859565b50565b61081482826040516024016107e5929190610b64565b60408051601f198184030181529190526020810180516001600160e01b031663319af33360e01b179052610859565b5050565b610814828260405160240161082e929190610b8f565b60408051601f198184030181529190526020810180516001600160e01b0316634b5c427760e01b1790525b80516a636f6e736f6c652e6c6f67602083016000808483855afa5050505050565b80356001600160a01b038116811461089157600080fd5b919050565b60008083601f8401126108a7578182fd5b50813567ffffffffffffffff8111156108be578182fd5b6020830191508360208285010111156108d657600080fd5b9250929050565b600080600080606085870312156108f2578384fd5b6108fb8561087a565b93506109096020860161087a565b9250604085013567ffffffffffffffff811115610924578283fd5b61093087828801610896565b95989497509550505050565b600080600080600060608688031215610953578081fd5b61095c8661087a565b9450602086013567ffffffffffffffff80821115610978578283fd5b61098489838a01610896565b9096509450604088013591508082111561099c578283fd5b506109a988828901610896565b969995985093965092949392505050565b60008060008060008060006080888a0312156109d4578182fd5b6109dd8861087a565b9650602088013567ffffffffffffffff808211156109f9578384fd5b610a058b838c01610896565b909850965060408a0135915080821115610a1d578384fd5b610a298b838c01610896565b909650945060608a0135915080821115610a41578384fd5b50610a4e8a828b01610896565b989b979a50959850939692959293505050565b81835281816020850137506000828201602090810191909152601f909101601f19169091010190565b60008151808452815b81811015610aaf57602081850181015186830182015201610a93565b81811115610ac05782602083870101525b50601f01601f19169290920160200192915050565b8183823760009101908152919050565b602081526000610af9602083018486610a61565b949350505050565b606081526000610b1560608301888a610a61565b8281036020840152610b28818789610a61565b90508281036040840152610b3d818587610a61565b9998505050505050505050565b602081526000610b5d6020830184610a8a565b9392505050565b604081526000610b776040830185610a8a565b90506001600160a01b03831660208301529392505050565b604081526000610ba26040830185610a8a565b8281036020840152610bb48185610a8a565b9594505050505056fe455243343832342064616f5570646174653a20676f7665726e616e6365555249203d20455243343832342070726f706f73616c5570646174653a2070726f706f73616c4964203d2045524334383234206265666f726520656d69742070726f706f73616c557064617465455243343832342070726f706f73616c5570646174653a2070726f706f73616c555249203d20455243343832342064616f5570646174653a206465736372697074696f6e203d20455243343832342061637469766974794c6f675570646174653a2061637469766974794964203d20455243343832342070726f706f73616c5570646174653a206d73672e73656e646572203d2045524334383234206d656d6265725570646174653a20676f7665726e616e6365555249203d20455243343832342061637469766974794c6f675570646174653a2061637469766974794c6f67555249203d2045524334383234206d656d6265725570646174653a206d73672e73656e646572203d2045524334383234206265666f726520656d69742061637469766974794c6f67557064617465455243343832342061637469766974794c6f675570646174653a2064616f203d20455243343832342061637469766974794c6f675570646174653a206d73672e73656e646572203d20a26469706673582212209b8285d88b3388dd84ed3dfd96d4a06df8157e9b22325c54b4641b5f75b0c8ff64736f6c63430008040033",
  "linkReferences": {},
  "deployedLinkReferences": {}
}