{
  "_format": "hh-sol-artifact-1",
  "contractName": "ERC4824",
  "sourceName": "contracts/ERC4824.sol",
  "abi": [
    {
      "anonymous": false,
      "inputs": [
        {
          "indexed": true,
          "internalType": "address",
          "name": "sender",
          "type": "address"
        },
        {
          "indexed": true,
          "internalType": "address",
          "name": "dao",
          "type": "address"
        },
        {
          "indexed": true,
          "internalType": "string",
          "name": "activityId",
          "type": "string"
        },
        {
          "indexed": false,
          "internalType": "string",
          "name": "activityLogURI",
          "type": "string"
        }
      ],
      "name": "ActivityLogUpdate",
      "type": "event"
    },
    {
      "anonymous": false,
      "inputs": [
        {
          "indexed": true,
          "internalType": "address",
          "name": "sender",
          "type": "address"
        },
        {
          "indexed": true,
          "internalType": "address",
          "name": "dao",
          "type": "address"
        },
        {
          "indexed": false,
          "internalType": "string",
          "name": "name",
          "type": "string"
        },
        {
          "indexed": false,
          "internalType": "string",
          "name": "description",
          "type": "string"
        },
        {
          "indexed": false,
          "internalType": "string",
          "name": "governanceURI",
          "type": "string"
        }
      ],
      "name": "DAOUpdate",
      "type": "event"
    },
    {
      "anonymous": false,
      "inputs": [
        {
          "indexed": true,
          "internalType": "address",
          "name": "sender",
          "type": "address"
        },
        {
          "indexed": true,
          "internalType": "address",
          "name": "dao",
          "type": "address"
        },
        {
          "indexed": true,
          "internalType": "address",
          "name": "member",
          "type": "address"
        },
        {
          "indexed": false,
          "internalType": "string",
          "name": "memberURI",
          "type": "string"
        }
      ],
      "name": "MemberUpdate",
      "type": "event"
    },
    {
      "anonymous": false,
      "inputs": [
        {
          "indexed": true,
          "internalType": "address",
          "name": "sender",
          "type": "address"
        },
        {
          "indexed": true,
          "internalType": "address",
          "name": "dao",
          "type": "address"
        },
        {
          "indexed": true,
          "internalType": "string",
          "name": "proposalId",
          "type": "string"
        },
        {
          "indexed": false,
          "internalType": "string",
          "name": "proposalURI",
          "type": "string"
        }
      ],
      "name": "ProposalUpdate",
      "type": "event"
    },
    {
      "anonymous": false,
      "inputs": [
        {
          "indexed": true,
          "internalType": "address",
          "name": "sender",
          "type": "address"
        },
        {
          "indexed": true,
          "internalType": "string",
          "name": "indexedSchemaURI",
          "type": "string"
        },
        {
          "indexed": false,
          "internalType": "string",
          "name": "name",
          "type": "string"
        },
        {
          "indexed": false,
          "internalType": "string",
          "name": "description",
          "type": "string"
        },
        {
          "indexed": false,
          "internalType": "string",
          "name": "schemaURI",
          "type": "string"
        }
      ],
      "name": "SchemaUpdate",
      "type": "event"
    },
    {
      "inputs": [
        {
          "internalType": "address",
          "name": "dao",
          "type": "address"
        },
        {
          "internalType": "string",
          "name": "activityId",
          "type": "string"
        },
        {
          "internalType": "string",
          "name": "activityLogURI",
          "type": "string"
        }
      ],
      "name": "activityLogUpdate",
      "outputs": [],
      "stateMutability": "nonpayable",
      "type": "function"
    },
    {
      "inputs": [
        {
          "internalType": "address",
          "name": "dao",
          "type": "address"
        },
        {
          "internalType": "string",
          "name": "name",
          "type": "string"
        },
        {
          "internalType": "string",
          "name": "description",
          "type": "string"
        },
        {
          "internalType": "string",
          "name": "governanceURI",
          "type": "string"
        }
      ],
      "name": "daoUpdate",
      "outputs": [],
      "stateMutability": "nonpayable",
      "type": "function"
    },
    {
      "inputs": [
        {
          "internalType": "address",
          "name": "dao",
          "type": "address"
        },
        {
          "internalType": "address",
          "name": "member",
          "type": "address"
        },
        {
          "internalType": "string",
          "name": "memberURI",
          "type": "string"
        }
      ],
      "name": "memberUpdate",
      "outputs": [],
      "stateMutability": "nonpayable",
      "type": "function"
    },
    {
      "inputs": [
        {
          "internalType": "address",
          "name": "dao",
          "type": "address"
        },
        {
          "internalType": "string",
          "name": "proposalId",
          "type": "string"
        },
        {
          "internalType": "string",
          "name": "proposalURI",
          "type": "string"
        }
      ],
      "name": "proposalUpdate",
      "outputs": [],
      "stateMutability": "nonpayable",
      "type": "function"
    },
    {
      "inputs": [
        {
          "internalType": "string",
          "name": "name",
          "type": "string"
        },
        {
          "internalType": "string",
          "name": "description",
          "type": "string"
        },
        {
          "internalType": "string",
          "name": "schemaURI",
          "type": "string"
        }
      ],
      "name": "schemaUpdate",
      "outputs": [],
      "stateMutability": "nonpayable",
      "type": "function"
    }
  ],
  "bytecode": "0x608060405234801561001057600080fd5b506105fd806100206000396000f3fe608060405234801561001057600080fd5b50600436106100575760003560e01c80633fb7af8b1461005c5780634654b0c214610071578063809b407914610084578063819a387514610097578063e5a4d9b7146100aa575b600080fd5b61006f61006a36600461036e565b6100bd565b005b61006f61007f36600461030f565b610129565b61006f6100923660046103ec565b610186565b61006f6100a536600461036e565b6101e4565b61006f6100b8366004610493565b610241565b83836040516100cd929190610552565b6040518091039020856001600160a01b0316336001600160a01b03167f64ebc682099ed1ff865723beea5a976374b2b2cff42aeb60fa6b122efe225dc7858560405161011a929190610562565b60405180910390a45050505050565b826001600160a01b0316846001600160a01b0316336001600160a01b03167ff13b2bd41da66539dd39a23db46ebe1843cbf64df230f9dcdc8e9fb00b7d62d38585604051610178929190610562565b60405180910390a450505050565b866001600160a01b0316336001600160a01b03167f0beec71c6656a11b15a82f914d3e7a6c30cab301a8e2e1c02397c779204e24f58888888888886040516101d39695949392919061057e565b60405180910390a350505050505050565b83836040516101f4929190610552565b6040518091039020856001600160a01b0316336001600160a01b03167fbe428c0483fdd706041a9aaebe6c3a51a8f486ca36a54b9ca2be51df2a6b60b6858560405161011a929190610562565b8181604051610251929190610552565b6040518091039020336001600160a01b03167fd957cfb910e28bb827b9628a8a99faf9035c803bf06410f0223b65b231fea46088888888888860405161029c9695949392919061057e565b60405180910390a3505050505050565b80356001600160a01b03811681146102c357600080fd5b919050565b60008083601f8401126102d9578182fd5b50813567ffffffffffffffff8111156102f0578182fd5b60208301915083602082850101111561030857600080fd5b9250929050565b60008060008060608587031215610324578384fd5b61032d856102ac565b935061033b602086016102ac565b9250604085013567ffffffffffffffff811115610356578283fd5b610362878288016102c8565b95989497509550505050565b600080600080600060608688031215610385578081fd5b61038e866102ac565b9450602086013567ffffffffffffffff808211156103aa578283fd5b6103b689838a016102c8565b909650945060408801359150808211156103ce578283fd5b506103db888289016102c8565b969995985093965092949392505050565b60008060008060008060006080888a031215610406578182fd5b61040f886102ac565b9650602088013567ffffffffffffffff8082111561042b578384fd5b6104378b838c016102c8565b909850965060408a013591508082111561044f578384fd5b61045b8b838c016102c8565b909650945060608a0135915080821115610473578384fd5b506104808a828b016102c8565b989b979a50959850939692959293505050565b600080600080600080606087890312156104ab578182fd5b863567ffffffffffffffff808211156104c2578384fd5b6104ce8a838b016102c8565b909850965060208901359150808211156104e6578384fd5b6104f28a838b016102c8565b9096509450604089013591508082111561050a578384fd5b5061051789828a016102c8565b979a9699509497509295939492505050565b81835281816020850137506000828201602090810191909152601f909101601f19169091010190565b8183823760009101908152919050565b602081526000610576602083018486610529565b949350505050565b60608152600061059260608301888a610529565b82810360208401526105a5818789610529565b905082810360408401526105ba818587610529565b999850505050505050505056fea26469706673582212202896bc605cf8aca60fe3a66fb871393800fd48268c55b3a6a54a094183ccf7ad64736f6c63430008040033",
  "linkReferences": {},
  "deployedLinkReferences": {}
}