{
  "_format": "hh-sol-artifact-1",
  "contractName": "MyDAO",
  "sourceName": "contracts/MyDAO.sol",
  "abi": [
    {
      "inputs": [
        {
          "internalType": "contract IVotes",
          "name": "_token",
          "type": "address"
        },
        {
          "internalType": "contract TimelockController",
          "name": "_timelock",
          "type": "address"
        }
      ],
      "stateMutability": "nonpayable",
      "type": "constructor"
    },
    {
      "anonymous": false,
      "inputs": [
        {
          "indexed": false,
          "internalType": "uint256",
          "name": "proposalId",
          "type": "uint256"
        }
      ],
      "name": "ProposalCanceled",
      "type": "event"
    },
    {
      "anonymous": false,
      "inputs": [
        {
          "indexed": false,
          "internalType": "uint256",
          "name": "proposalId",
          "type": "uint256"
        },
        {
          "indexed": false,
          "internalType": "address",
          "name": "proposer",
          "type": "address"
        },
        {
          "indexed": false,
          "internalType": "address[]",
          "name": "targets",
          "type": "address[]"
        },
        {
          "indexed": false,
          "internalType": "uint256[]",
          "name": "values",
          "type": "uint256[]"
        },
        {
          "indexed": false,
          "internalType": "string[]",
          "name": "signatures",
          "type": "string[]"
        },
        {
          "indexed": false,
          "internalType": "bytes[]",
          "name": "calldatas",
          "type": "bytes[]"
        },
        {
          "indexed": false,
          "internalType": "uint256",
          "name": "startBlock",
          "type": "uint256"
        },
        {
          "indexed": false,
          "internalType": "uint256",
          "name": "endBlock",
          "type": "uint256"
        },
        {
          "indexed": false,
          "internalType": "string",
          "name": "description",
          "type": "string"
        }
      ],
      "name": "ProposalCreated",
      "type": "event"
    },
    {
      "anonymous": false,
      "inputs": [
        {
          "indexed": false,
          "internalType": "uint256",
          "name": "proposalId",
          "type": "uint256"
        }
      ],
      "name": "ProposalExecuted",
      "type": "event"
    },
    {
      "anonymous": false,
      "inputs": [
        {
          "indexed": false,
          "internalType": "uint256",
          "name": "proposalId",
          "type": "uint256"
        },
        {
          "indexed": false,
          "internalType": "uint256",
          "name": "eta",
          "type": "uint256"
        }
      ],
      "name": "ProposalQueued",
      "type": "event"
    },
    {
      "anonymous": false,
      "inputs": [
        {
          "indexed": false,
          "internalType": "uint256",
          "name": "oldProposalThreshold",
          "type": "uint256"
        },
        {
          "indexed": false,
          "internalType": "uint256",
          "name": "newProposalThreshold",
          "type": "uint256"
        }
      ],
      "name": "ProposalThresholdSet",
      "type": "event"
    },
    {
      "anonymous": false,
      "inputs": [
        {
          "indexed": false,
          "internalType": "uint256",
          "name": "oldQuorumNumerator",
          "type": "uint256"
        },
        {
          "indexed": false,
          "internalType": "uint256",
          "name": "newQuorumNumerator",
          "type": "uint256"
        }
      ],
      "name": "QuorumNumeratorUpdated",
      "type": "event"
    },
    {
      "anonymous": false,
      "inputs": [
        {
          "indexed": false,
          "internalType": "address",
          "name": "oldTimelock",
          "type": "address"
        },
        {
          "indexed": false,
          "internalType": "address",
          "name": "newTimelock",
          "type": "address"
        }
      ],
      "name": "TimelockChange",
      "type": "event"
    },
    {
      "anonymous": false,
      "inputs": [
        {
          "indexed": true,
          "internalType": "address",
          "name": "voter",
          "type": "address"
        },
        {
          "indexed": false,
          "internalType": "uint256",
          "name": "proposalId",
          "type": "uint256"
        },
        {
          "indexed": false,
          "internalType": "uint8",
          "name": "support",
          "type": "uint8"
        },
        {
          "indexed": false,
          "internalType": "uint256",
          "name": "weight",
          "type": "uint256"
        },
        {
          "indexed": false,
          "internalType": "string",
          "name": "reason",
          "type": "string"
        }
      ],
      "name": "VoteCast",
      "type": "event"
    },
    {
      "anonymous": false,
      "inputs": [
        {
          "indexed": false,
          "internalType": "uint256",
          "name": "oldVotingDelay",
          "type": "uint256"
        },
        {
          "indexed": false,
          "internalType": "uint256",
          "name": "newVotingDelay",
          "type": "uint256"
        }
      ],
      "name": "VotingDelaySet",
      "type": "event"
    },
    {
      "anonymous": false,
      "inputs": [
        {
          "indexed": false,
          "internalType": "uint256",
          "name": "oldVotingPeriod",
          "type": "uint256"
        },
        {
          "indexed": false,
          "internalType": "uint256",
          "name": "newVotingPeriod",
          "type": "uint256"
        }
      ],
      "name": "VotingPeriodSet",
      "type": "event"
    },
    {
      "inputs": [],
      "name": "BALLOT_TYPEHASH",
      "outputs": [
        {
          "internalType": "bytes32",
          "name": "",
          "type": "bytes32"
        }
      ],
      "stateMutability": "view",
      "type": "function"
    },
    {
      "inputs": [],
      "name": "COUNTING_MODE",
      "outputs": [
        {
          "internalType": "string",
          "name": "",
          "type": "string"
        }
      ],
      "stateMutability": "pure",
      "type": "function"
    },
    {
      "inputs": [
        {
          "internalType": "uint256",
          "name": "proposalId",
          "type": "uint256"
        },
        {
          "internalType": "uint8",
          "name": "support",
          "type": "uint8"
        }
      ],
      "name": "castVote",
      "outputs": [
        {
          "internalType": "uint256",
          "name": "",
          "type": "uint256"
        }
      ],
      "stateMutability": "nonpayable",
      "type": "function"
    },
    {
      "inputs": [
        {
          "internalType": "uint256",
          "name": "proposalId",
          "type": "uint256"
        },
        {
          "internalType": "uint8",
          "name": "support",
          "type": "uint8"
        },
        {
          "internalType": "uint8",
          "name": "v",
          "type": "uint8"
        },
        {
          "internalType": "bytes32",
          "name": "r",
          "type": "bytes32"
        },
        {
          "internalType": "bytes32",
          "name": "s",
          "type": "bytes32"
        }
      ],
      "name": "castVoteBySig",
      "outputs": [
        {
          "internalType": "uint256",
          "name": "",
          "type": "uint256"
        }
      ],
      "stateMutability": "nonpayable",
      "type": "function"
    },
    {
      "inputs": [
        {
          "internalType": "uint256",
          "name": "proposalId",
          "type": "uint256"
        },
        {
          "internalType": "uint8",
          "name": "support",
          "type": "uint8"
        },
        {
          "internalType": "string",
          "name": "reason",
          "type": "string"
        }
      ],
      "name": "castVoteWithReason",
      "outputs": [
        {
          "internalType": "uint256",
          "name": "",
          "type": "uint256"
        }
      ],
      "stateMutability": "nonpayable",
      "type": "function"
    },
    {
      "inputs": [
        {
          "internalType": "address[]",
          "name": "targets",
          "type": "address[]"
        },
        {
          "internalType": "uint256[]",
          "name": "values",
          "type": "uint256[]"
        },
        {
          "internalType": "bytes[]",
          "name": "calldatas",
          "type": "bytes[]"
        },
        {
          "internalType": "bytes32",
          "name": "descriptionHash",
          "type": "bytes32"
        }
      ],
      "name": "execute",
      "outputs": [
        {
          "internalType": "uint256",
          "name": "",
          "type": "uint256"
        }
      ],
      "stateMutability": "payable",
      "type": "function"
    },
    {
      "inputs": [
        {
          "internalType": "address",
          "name": "account",
          "type": "address"
        },
        {
          "internalType": "uint256",
          "name": "blockNumber",
          "type": "uint256"
        }
      ],
      "name": "getVotes",
      "outputs": [
        {
          "internalType": "uint256",
          "name": "",
          "type": "uint256"
        }
      ],
      "stateMutability": "view",
      "type": "function"
    },
    {
      "inputs": [
        {
          "internalType": "uint256",
          "name": "proposalId",
          "type": "uint256"
        },
        {
          "internalType": "address",
          "name": "account",
          "type": "address"
        }
      ],
      "name": "hasVoted",
      "outputs": [
        {
          "internalType": "bool",
          "name": "",
          "type": "bool"
        }
      ],
      "stateMutability": "view",
      "type": "function"
    },
    {
      "inputs": [
        {
          "internalType": "address[]",
          "name": "targets",
          "type": "address[]"
        },
        {
          "internalType": "uint256[]",
          "name": "values",
          "type": "uint256[]"
        },
        {
          "internalType": "bytes[]",
          "name": "calldatas",
          "type": "bytes[]"
        },
        {
          "internalType": "bytes32",
          "name": "descriptionHash",
          "type": "bytes32"
        }
      ],
      "name": "hashProposal",
      "outputs": [
        {
          "internalType": "uint256",
          "name": "",
          "type": "uint256"
        }
      ],
      "stateMutability": "pure",
      "type": "function"
    },
    {
      "inputs": [],
      "name": "name",
      "outputs": [
        {
          "internalType": "string",
          "name": "",
          "type": "string"
        }
      ],
      "stateMutability": "view",
      "type": "function"
    },
    {
      "inputs": [
        {
          "internalType": "uint256",
          "name": "proposalId",
          "type": "uint256"
        }
      ],
      "name": "proposalDeadline",
      "outputs": [
        {
          "internalType": "uint256",
          "name": "",
          "type": "uint256"
        }
      ],
      "stateMutability": "view",
      "type": "function"
    },
    {
      "inputs": [
        {
          "internalType": "uint256",
          "name": "proposalId",
          "type": "uint256"
        }
      ],
      "name": "proposalEta",
      "outputs": [
        {
          "internalType": "uint256",
          "name": "",
          "type": "uint256"
        }
      ],
      "stateMutability": "view",
      "type": "function"
    },
    {
      "inputs": [
        {
          "internalType": "uint256",
          "name": "proposalId",
          "type": "uint256"
        }
      ],
      "name": "proposalSnapshot",
      "outputs": [
        {
          "internalType": "uint256",
          "name": "",
          "type": "uint256"
        }
      ],
      "stateMutability": "view",
      "type": "function"
    },
    {
      "inputs": [],
      "name": "proposalThreshold",
      "outputs": [
        {
          "internalType": "uint256",
          "name": "",
          "type": "uint256"
        }
      ],
      "stateMutability": "view",
      "type": "function"
    },
    {
      "inputs": [
        {
          "internalType": "uint256",
          "name": "proposalId",
          "type": "uint256"
        }
      ],
      "name": "proposalVotes",
      "outputs": [
        {
          "internalType": "uint256",
          "name": "againstVotes",
          "type": "uint256"
        },
        {
          "internalType": "uint256",
          "name": "forVotes",
          "type": "uint256"
        },
        {
          "internalType": "uint256",
          "name": "abstainVotes",
          "type": "uint256"
        }
      ],
      "stateMutability": "view",
      "type": "function"
    },
    {
      "inputs": [
        {
          "internalType": "address[]",
          "name": "targets",
          "type": "address[]"
        },
        {
          "internalType": "uint256[]",
          "name": "values",
          "type": "uint256[]"
        },
        {
          "internalType": "bytes[]",
          "name": "calldatas",
          "type": "bytes[]"
        },
        {
          "internalType": "string",
          "name": "description",
          "type": "string"
        }
      ],
      "name": "propose",
      "outputs": [
        {
          "internalType": "uint256",
          "name": "",
          "type": "uint256"
        }
      ],
      "stateMutability": "nonpayable",
      "type": "function"
    },
    {
      "inputs": [
        {
          "internalType": "address[]",
          "name": "targets",
          "type": "address[]"
        },
        {
          "internalType": "uint256[]",
          "name": "values",
          "type": "uint256[]"
        },
        {
          "internalType": "bytes[]",
          "name": "calldatas",
          "type": "bytes[]"
        },
        {
          "internalType": "bytes32",
          "name": "descriptionHash",
          "type": "bytes32"
        }
      ],
      "name": "queue",
      "outputs": [
        {
          "internalType": "uint256",
          "name": "",
          "type": "uint256"
        }
      ],
      "stateMutability": "nonpayable",
      "type": "function"
    },
    {
      "inputs": [
        {
          "internalType": "uint256",
          "name": "blockNumber",
          "type": "uint256"
        }
      ],
      "name": "quorum",
      "outputs": [
        {
          "internalType": "uint256",
          "name": "",
          "type": "uint256"
        }
      ],
      "stateMutability": "view",
      "type": "function"
    },
    {
      "inputs": [],
      "name": "quorumDenominator",
      "outputs": [
        {
          "internalType": "uint256",
          "name": "",
          "type": "uint256"
        }
      ],
      "stateMutability": "view",
      "type": "function"
    },
    {
      "inputs": [],
      "name": "quorumNumerator",
      "outputs": [
        {
          "internalType": "uint256",
          "name": "",
          "type": "uint256"
        }
      ],
      "stateMutability": "view",
      "type": "function"
    },
    {
      "inputs": [
        {
          "internalType": "address",
          "name": "target",
          "type": "address"
        },
        {
          "internalType": "uint256",
          "name": "value",
          "type": "uint256"
        },
        {
          "internalType": "bytes",
          "name": "data",
          "type": "bytes"
        }
      ],
      "name": "relay",
      "outputs": [],
      "stateMutability": "nonpayable",
      "type": "function"
    },
    {
      "inputs": [
        {
          "internalType": "uint256",
          "name": "newProposalThreshold",
          "type": "uint256"
        }
      ],
      "name": "setProposalThreshold",
      "outputs": [],
      "stateMutability": "nonpayable",
      "type": "function"
    },
    {
      "inputs": [
        {
          "internalType": "uint256",
          "name": "newVotingDelay",
          "type": "uint256"
        }
      ],
      "name": "setVotingDelay",
      "outputs": [],
      "stateMutability": "nonpayable",
      "type": "function"
    },
    {
      "inputs": [
        {
          "internalType": "uint256",
          "name": "newVotingPeriod",
          "type": "uint256"
        }
      ],
      "name": "setVotingPeriod",
      "outputs": [],
      "stateMutability": "nonpayable",
      "type": "function"
    },
    {
      "inputs": [
        {
          "internalType": "uint256",
          "name": "proposalId",
          "type": "uint256"
        }
      ],
      "name": "state",
      "outputs": [
        {
          "internalType": "enum IGovernor.ProposalState",
          "name": "",
          "type": "uint8"
        }
      ],
      "stateMutability": "view",
      "type": "function"
    },
    {
      "inputs": [
        {
          "internalType": "bytes4",
          "name": "interfaceId",
          "type": "bytes4"
        }
      ],
      "name": "supportsInterface",
      "outputs": [
        {
          "internalType": "bool",
          "name": "",
          "type": "bool"
        }
      ],
      "stateMutability": "view",
      "type": "function"
    },
    {
      "inputs": [],
      "name": "timelock",
      "outputs": [
        {
          "internalType": "address",
          "name": "",
          "type": "address"
        }
      ],
      "stateMutability": "view",
      "type": "function"
    },
    {
      "inputs": [],
      "name": "token",
      "outputs": [
        {
          "internalType": "contract IVotes",
          "name": "",
          "type": "address"
        }
      ],
      "stateMutability": "view",
      "type": "function"
    },
    {
      "inputs": [
        {
          "internalType": "uint256",
          "name": "newQuorumNumerator",
          "type": "uint256"
        }
      ],
      "name": "updateQuorumNumerator",
      "outputs": [],
      "stateMutability": "nonpayable",
      "type": "function"
    },
    {
      "inputs": [
        {
          "internalType": "contract TimelockController",
          "name": "newTimelock",
          "type": "address"
        }
      ],
      "name": "updateTimelock",
      "outputs": [],
      "stateMutability": "nonpayable",
      "type": "function"
    },
    {
      "inputs": [],
      "name": "version",
      "outputs": [
        {
          "internalType": "string",
          "name": "",
          "type": "string"
        }
      ],
      "stateMutability": "view",
      "type": "function"
    },
    {
      "inputs": [],
      "name": "votingDelay",
      "outputs": [
        {
          "internalType": "uint256",
          "name": "",
          "type": "uint256"
        }
      ],
      "stateMutability": "view",
      "type": "function"
    },
    {
      "inputs": [],
      "name": "votingPeriod",
      "outputs": [
        {
          "internalType": "uint256",
          "name": "",
          "type": "uint256"
        }
      ],
      "stateMutability": "view",
      "type": "function"
    },
    {
      "stateMutability": "payable",
      "type": "receive"
    }
  ],
  "bytecode": "0x6101606040523480156200001257600080fd5b506040516200341a3803806200341a83398101604081905262000035916200048c565b80600483600160056000604051806040016040528060058152602001644d7944414f60d81b815250806200006e6200016f60201b60201c565b815160208084019190912082518383012060e08290526101008190524660a0818152604080517f8b73c3c69bb8fe3d512ecc4cf759cc79239f7b179b0ffacaa9a75d522b39400f81880181905281830187905260608201869052608082019490945230818401528151808203909301835260c00190528051940193909320919290916080523060601b60c0526101205250508251620001179250600091506020840190620003e6565b50620001259050836200018a565b6200013082620001cb565b6200013b8162000272565b50505060601b6001600160601b031916610140526200015a81620002b3565b5062000166816200037d565b50505062000520565b6040805180820190915260018152603160f81b602082015290565b60025460408051918252602082018390527fc565b045403dc03c2eea82b81a0465edad9e2e7fc4d97e11421c209da93d7a93910160405180910390a1600255565b60008111620002315760405162461bcd60e51b815260206004820152602760248201527f476f7665726e6f7253657474696e67733a20766f74696e6720706572696f6420604482015266746f6f206c6f7760c81b60648201526084015b60405180910390fd5b60035460408051918252602082018390527f7e3f7f0708a84de9203036abaa450dccc85ad5ff52f78c170f3edb55cf5e8828910160405180910390a1600355565b60045460408051918252602082018390527fccb45da8d5717e6c4544694297c4ba5cf151d455c9bb0ed4fc7a38411bc05461910160405180910390a1600455565b6064811115620003385760405162461bcd60e51b815260206004820152604360248201527f476f7665726e6f72566f74657351756f72756d4672616374696f6e3a2071756f60448201527f72756d4e756d657261746f72206f7665722071756f72756d44656e6f6d696e616064820152623a37b960e91b608482015260a40162000228565b600680549082905560408051828152602081018490527f0553476bf02ef2726e8ce5ced78d63e26e602e4a2257b1f559418e24b4633997910160405180910390a15050565b600754604080516001600160a01b03928316815291831660208301527f08f74ea46ef7894f65eabfb5e6e695de773a000b47c529ab559178069b226401910160405180910390a1600780546001600160a01b0319166001600160a01b0392909216919091179055565b828054620003f490620004ca565b90600052602060002090601f01602090048101928262000418576000855562000463565b82601f106200043357805160ff191683800117855562000463565b8280016001018555821562000463579182015b828111156200046357825182559160200191906001019062000446565b506200047192915062000475565b5090565b5b8082111562000471576000815560010162000476565b600080604083850312156200049f578182fd5b8251620004ac8162000507565b6020840151909250620004bf8162000507565b809150509250929050565b600181811c90821680620004df57607f821691505b602082108114156200050157634e487b7160e01b600052602260045260246000fd5b50919050565b6001600160a01b03811681146200051d57600080fd5b50565b60805160a05160c05160601c60e05161010051610120516101405160601c612e8b6200058f600039600081816106ce01528181611881015261195b01526000611b2401526000611b7301526000611b4e01526000611aa701526000611ad101526000611afb0152612e8b6000f3fe6080604052600436106101f25760003560e01c80637d5e81e21161010d578063c59057e4116100a0578063ea0217cf1161006f578063ea0217cf1461063c578063eb9019d41461065c578063ece40cc11461067c578063f8ce560a1461069c578063fc0c546a146106bc57600080fd5b8063c59057e414610570578063d33219b414610590578063dd4e2ba5146105c2578063deaaa7cc1461060857600080fd5b8063ab58fb8e116100dc578063ab58fb8e146104fb578063b58131b01461051b578063c01f9e3714610530578063c28bc2fa1461055057600080fd5b80637d5e81e21461049257806397c3d334146104b2578063a7713a70146104c6578063a890c910146104db57600080fd5b80633bccf4fd1161018557806354fd4d501161015457806354fd4d5014610408578063567813881461043257806370b0f660146104525780637b3c71d31461047257600080fd5b80633bccf4fd1461031c5780633e4f49e61461033c5780634385963214610369578063544ffc9c146103b357600080fd5b8063160cbed7116101c1578063160cbed7146102b45780632656227d146102d45780632d63f693146102e75780633932abb11461030757600080fd5b806301ffc9a71461021a57806302a251a31461024f57806306f3f9e61461027257806306fdde031461029257600080fd5b3661021557306102006106f0565b6001600160a01b03161461021357600080fd5b005b600080fd5b34801561022657600080fd5b5061023a61023536600461275f565b610709565b60405190151581526020015b60405180910390f35b34801561025b57600080fd5b5061026461071a565b604051908152602001610246565b34801561027e57600080fd5b5061021361028d3660046127a3565b610725565b34801561029e57600080fd5b506102a761078c565b6040516102469190612ac8565b3480156102c057600080fd5b506102646102cf3660046125e2565b61081e565b6102646102e23660046125e2565b610a4a565b3480156102f357600080fd5b506102646103023660046127a3565b610b39565b34801561031357600080fd5b50610264610b70565b34801561032857600080fd5b50610264610337366004612854565b610b7b565b34801561034857600080fd5b5061035c6103573660046127a3565b610c0f565b6040516102469190612aa0565b34801561037557600080fd5b5061023a6103843660046127bb565b60008281526005602090815260408083206001600160a01b038516845260030190915290205460ff1692915050565b3480156103bf57600080fd5b506103ed6103ce3660046127a3565b6000908152600560205260409020805460018201546002909201549092565b60408051938452602084019290925290820152606001610246565b34801561041457600080fd5b506040805180820190915260018152603160f81b60208201526102a7565b34801561043e57600080fd5b5061026461044d3660046127ea565b610c1a565b34801561045e57600080fd5b5061021361046d3660046127a3565b610c43565b34801561047e57600080fd5b5061026461048d366004612815565b610ca2565b34801561049e57600080fd5b506102646104ad36600461266d565b610cf4565b3480156104be57600080fd5b506064610264565b3480156104d257600080fd5b50600654610264565b3480156104e757600080fd5b506102136104f6366004612787565b610d0b565b34801561050757600080fd5b506102646105163660046127a3565b610d6a565b34801561052757600080fd5b50610264610e14565b34801561053c57600080fd5b5061026461054b3660046127a3565b610e1f565b34801561055c57600080fd5b5061021361056b366004612589565b610e4e565b34801561057c57600080fd5b5061026461058b3660046125e2565b610eed565b34801561059c57600080fd5b506007546001600160a01b03165b6040516001600160a01b039091168152602001610246565b3480156105ce57600080fd5b506040805180820190915260208082527f737570706f72743d627261766f2671756f72756d3d666f722c6162737461696e908201526102a7565b34801561061457600080fd5b506102647f150214d74d59b7d1e90c73fc22ef3d991dd0a76b046543d4d80ab92d2a50328f81565b34801561064857600080fd5b506102136106573660046127a3565b610f27565b34801561066857600080fd5b5061026461067736600461255e565b610f86565b34801561068857600080fd5b506102136106973660046127a3565b610f92565b3480156106a857600080fd5b506102646106b73660046127a3565b610ff1565b3480156106c857600080fd5b506105aa7f000000000000000000000000000000000000000000000000000000000000000081565b60006107046007546001600160a01b031690565b905090565b600061071482610ffc565b92915050565b600061070460035490565b61072d6106f0565b6001600160a01b0316336001600160a01b0316146107805760405162461bcd60e51b81526020600482015260186024820152600080516020612e3683398151915260448201526064015b60405180910390fd5b61078981611021565b50565b60606000805461079b90612d90565b80601f01602080910402602001604051908101604052809291908181526020018280546107c790612d90565b80156108145780601f106107e957610100808354040283529160200191610814565b820191906000526020600020905b8154815290600101906020018083116107f757829003601f168201915b5050505050905090565b60008061082d86868686610eed565b9050600461083a82610c0f565b600781111561085957634e487b7160e01b600052602160045260246000fd5b146108765760405162461bcd60e51b815260040161077790612b1c565b6007546040805163793d064960e11b815290516000926001600160a01b03169163f27a0c92916004808301926020929190829003018186803b1580156108bb57600080fd5b505afa1580156108cf573d6000803e3d6000fd5b505050506040513d601f19601f820116820180604052508101906108f39190612747565b60075460405163b1c5f42760e01b81529192506001600160a01b03169063b1c5f4279061092d908a908a908a906000908b906004016129fa565b60206040518083038186803b15801561094557600080fd5b505afa158015610959573d6000803e3d6000fd5b505050506040513d601f19601f8201168201806040525081019061097d9190612747565b6000838152600860205260408082209290925560075491516308f2a0bb60e41b81526001600160a01b0390921691638f2a0bb0916109c8918b918b918b91908b908990600401612a48565b600060405180830381600087803b1580156109e257600080fd5b505af11580156109f6573d6000803e3d6000fd5b505050507f9a2e42fd6722813d69113e7d0079d3d940171428df7373df9c7f7617cfda2892828242610a289190612cc7565b6040805192835260208301919091520160405180910390a15095945050505050565b600080610a5986868686610eed565b90506000610a6682610c0f565b90506004816007811115610a8a57634e487b7160e01b600052602160045260246000fd5b1480610ab557506005816007811115610ab357634e487b7160e01b600052602160045260246000fd5b145b610ad15760405162461bcd60e51b815260040161077790612b1c565b600082815260016020818152604092839020600201805460ff191690921790915590518381527f712ae1383f79ac853f8d882153778e0260ef8f03b504e2866e0593e04d2b291f910160405180910390a1610b2f82888888886110e9565b5095945050505050565b60008181526001602090815260408083208151928301909152546001600160401b0316908190525b6001600160401b031692915050565b600061070460025490565b604080517f150214d74d59b7d1e90c73fc22ef3d991dd0a76b046543d4d80ab92d2a50328f602082015290810186905260ff851660608201526000908190610be790610bdf90608001604051602081830303815290604052805190602001206110f6565b868686611144565b9050610c0487828860405180602001604052806000815250611162565b979650505050505050565b60006107148261127b565b600080339050610c3b84828560405180602001604052806000815250611162565b949350505050565b610c4b6106f0565b6001600160a01b0316336001600160a01b031614610c995760405162461bcd60e51b81526020600482015260186024820152600080516020612e368339815191526044820152606401610777565b610789816113f1565b600080339050610cea86828787878080601f01602080910402602001604051908101604052809392919081815260200183838082843760009201919091525061116292505050565b9695505050505050565b6000610d0285858585611432565b95945050505050565b610d136106f0565b6001600160a01b0316336001600160a01b031614610d615760405162461bcd60e51b81526020600482015260186024820152600080516020612e368339815191526044820152606401610777565b6107898161171b565b60075460008281526008602052604080822054905163d45c443560e01b81526004810191909152909182916001600160a01b039091169063d45c44359060240160206040518083038186803b158015610dc257600080fd5b505afa158015610dd6573d6000803e3d6000fd5b505050506040513d601f19601f82011682018060405250810190610dfa9190612747565b905080600114610e0a5780610e0d565b60005b9392505050565b600061070460045490565b60008181526001602081815260408084208151928301909152909101546001600160401b031690819052610b61565b610e566106f0565b6001600160a01b0316336001600160a01b031614610ea45760405162461bcd60e51b81526020600482015260186024820152600080516020612e368339815191526044820152606401610777565b610ee68483838080601f016020809104026020016040519081016040528093929190818152602001838380828437600092019190915250889250611791915050565b5050505050565b600084848484604051602001610f0694939291906129af565b60408051601f19818403018152919052805160209091012095945050505050565b610f2f6106f0565b6001600160a01b0316336001600160a01b031614610f7d5760405162461bcd60e51b81526020600482015260186024820152600080516020612e368339815191526044820152606401610777565b610789816117b7565b6000610e0d8383611858565b610f9a6106f0565b6001600160a01b0316336001600160a01b031614610fe85760405162461bcd60e51b81526020600482015260186024820152600080516020612e368339815191526044820152606401610777565b610789816118fd565b60006107148261193e565b60006001600160e01b03198216636e665ced60e01b14806107145750610714826119f1565b60648111156110a45760405162461bcd60e51b815260206004820152604360248201527f476f7665726e6f72566f74657351756f72756d4672616374696f6e3a2071756f60448201527f72756d4e756d657261746f72206f7665722071756f72756d44656e6f6d696e616064820152623a37b960e91b608482015260a401610777565b600680549082905560408051828152602081018490527f0553476bf02ef2726e8ce5ced78d63e26e602e4a2257b1f559418e24b4633997910160405180910390a15050565b610ee68585858585611a26565b6000610714611103611a9a565b8360405161190160f01b6020820152602281018390526042810182905260009060620160405160208183030381529060405280519060200120905092915050565b600080600061115587878787611bc1565b91509150610b2f81611cae565b600084815260016020819052604082209061117c87610c0f565b600781111561119b57634e487b7160e01b600052602160045260246000fd5b146111f45760405162461bcd60e51b815260206004820152602360248201527f476f7665726e6f723a20766f7465206e6f742063757272656e746c792061637460448201526269766560e81b6064820152608401610777565b604080516020810190915281546001600160401b03169081905260009061121c908790610f86565b905061122a87878784611eaf565b856001600160a01b03167fb8e138887d0aa13bab447e82de9d5c1777041ecd21ca36ba824ff1e6c07ddda4888784886040516112699493929190612c4c565b60405180910390a29695505050505050565b60008061128783612036565b905060048160078111156112ab57634e487b7160e01b600052602160045260246000fd5b146112b65792915050565b600083815260086020526040902054806112d1575092915050565b600754604051632ab0f52960e01b8152600481018390526001600160a01b0390911690632ab0f5299060240160206040518083038186803b15801561131557600080fd5b505afa158015611329573d6000803e3d6000fd5b505050506040513d601f19601f8201168201806040525081019061134d9190612727565b1561135c575060079392505050565b600754604051632c258a9f60e11b8152600481018390526001600160a01b039091169063584b153e9060240160206040518083038186803b1580156113a057600080fd5b505afa1580156113b4573d6000803e3d6000fd5b505050506040513d601f19601f820116820180604052508101906113d89190612727565b156113e7575060059392505050565b5060029392505050565b60025460408051918252602082018390527fc565b045403dc03c2eea82b81a0465edad9e2e7fc4d97e11421c209da93d7a93910160405180910390a1600255565b600061143c610e14565b61144b33610677600143612d49565b10156114cb5760405162461bcd60e51b815260206004820152604360248201527f476f7665726e6f72436f6d7061746962696c697479427261766f3a2070726f7060448201527f6f73657220766f7465732062656c6f772070726f706f73616c207468726573686064820152621bdb1960ea1b608482015260a401610777565b60006114e08686868680519060200120610eed565b905084518651146115035760405162461bcd60e51b815260040161077790612adb565b83518651146115245760405162461bcd60e51b815260040161077790612adb565b60008651116115755760405162461bcd60e51b815260206004820152601860248201527f476f7665726e6f723a20656d7074792070726f706f73616c00000000000000006044820152606401610777565b600081815260016020908152604091829020825191820190925281546001600160401b031690819052156115f55760405162461bcd60e51b815260206004820152602160248201527f476f7665726e6f723a2070726f706f73616c20616c72656164792065786973746044820152607360f81b6064820152608401610777565b6000611607611602610b70565b612142565b61161043612142565b61161a9190612cdf565b9050600061162961160261071a565b6116339083612cdf565b835467ffffffffffffffff19166001600160401b038416178455905060018301805467ffffffffffffffff19166001600160401b0383161790557f7d84a6263ae0d98d3329bd7b46bb4e8d6f98cd35a7adb45c274c8b7fd5ebd5e084338b8b8d516001600160401b038111156116b957634e487b7160e01b600052604160045260246000fd5b6040519080825280602002602001820160405280156116ec57816020015b60608152602001906001900390816116d75790505b508c88888e60405161170699989796959493929190612b5d565b60405180910390a15091979650505050505050565b600754604080516001600160a01b03928316815291831660208301527f08f74ea46ef7894f65eabfb5e6e695de773a000b47c529ab559178069b226401910160405180910390a16007805473ffffffffffffffffffffffffffffffffffffffff19166001600160a01b0392909216919091179055565b6060610c3b848484604051806060016040528060298152602001612e0d602991396121ae565b600081116118175760405162461bcd60e51b815260206004820152602760248201527f476f7665726e6f7253657474696e67733a20766f74696e6720706572696f6420604482015266746f6f206c6f7760c81b6064820152608401610777565b60035460408051918252602082018390527f7e3f7f0708a84de9203036abaa450dccc85ad5ff52f78c170f3edb55cf5e8828910160405180910390a1600355565b604051630748d63560e31b81526001600160a01b038381166004830152602482018390526000917f000000000000000000000000000000000000000000000000000000000000000090911690633a46b1a89060440160206040518083038186803b1580156118c557600080fd5b505afa1580156118d9573d6000803e3d6000fd5b505050506040513d601f19601f82011682018060405250810190610e0d9190612747565b60045460408051918252602082018390527fccb45da8d5717e6c4544694297c4ba5cf151d455c9bb0ed4fc7a38411bc05461910160405180910390a1600455565b60006064600654604051632394e7a360e21b8152600481018590527f00000000000000000000000000000000000000000000000000000000000000006001600160a01b031690638e539e8c9060240160206040518083038186803b1580156119a557600080fd5b505afa1580156119b9573d6000803e3d6000fd5b505050506040513d601f19601f820116820180604052508101906119dd9190612747565b6119e79190612d2a565b6107149190612d0a565b60006001600160e01b0319821663bf26d89760e01b148061071457506301ffc9a760e01b6001600160e01b0319831614610714565b60075460405163e38335e560e01b81526001600160a01b039091169063e38335e5903490611a619088908890889060009089906004016129fa565b6000604051808303818588803b158015611a7a57600080fd5b505af1158015611a8e573d6000803e3d6000fd5b50505050505050505050565b6000306001600160a01b037f000000000000000000000000000000000000000000000000000000000000000016148015611af357507f000000000000000000000000000000000000000000000000000000000000000046145b15611b1d57507f000000000000000000000000000000000000000000000000000000000000000090565b50604080517f00000000000000000000000000000000000000000000000000000000000000006020808301919091527f0000000000000000000000000000000000000000000000000000000000000000828401527f000000000000000000000000000000000000000000000000000000000000000060608301524660808301523060a0808401919091528351808403909101815260c0909201909252805191012090565b6000807f7fffffffffffffffffffffffffffffff5d576e7357a4501ddfe92f46681b20a0831115611bf85750600090506003611ca5565b8460ff16601b14158015611c1057508460ff16601c14155b15611c215750600090506004611ca5565b6040805160008082526020820180845289905260ff881692820192909252606081018690526080810185905260019060a0016020604051602081039080840390855afa158015611c75573d6000803e3d6000fd5b5050604051601f1901519150506001600160a01b038116611c9e57600060019250925050611ca5565b9150600090505b94509492505050565b6000816004811115611cd057634e487b7160e01b600052602160045260246000fd5b1415611cd95750565b6001816004811115611cfb57634e487b7160e01b600052602160045260246000fd5b1415611d495760405162461bcd60e51b815260206004820152601860248201527f45434453413a20696e76616c6964207369676e617475726500000000000000006044820152606401610777565b6002816004811115611d6b57634e487b7160e01b600052602160045260246000fd5b1415611db95760405162461bcd60e51b815260206004820152601f60248201527f45434453413a20696e76616c6964207369676e6174757265206c656e677468006044820152606401610777565b6003816004811115611ddb57634e487b7160e01b600052602160045260246000fd5b1415611e345760405162461bcd60e51b815260206004820152602260248201527f45434453413a20696e76616c6964207369676e6174757265202773272076616c604482015261756560f01b6064820152608401610777565b6004816004811115611e5657634e487b7160e01b600052602160045260246000fd5b14156107895760405162461bcd60e51b815260206004820152602260248201527f45434453413a20696e76616c6964207369676e6174757265202776272076616c604482015261756560f01b6064820152608401610777565b60008481526005602090815260408083206001600160a01b0387168452600381019092529091205460ff1615611f375760405162461bcd60e51b815260206004820152602760248201527f476f7665726e6f72566f74696e6753696d706c653a20766f746520616c726561604482015266191e4818d85cdd60ca1b6064820152608401610777565b6001600160a01b03841660009081526003820160205260408120805460ff1916600117905560ff168360ff161415611f885781816000016000828254611f7d9190612cc7565b90915550610ee69050565b60ff831660011415611fa85781816001016000828254611f7d9190612cc7565b60ff831660021415611fc85781816002016000828254611f7d9190612cc7565b60405162461bcd60e51b815260206004820152603560248201527f476f7665726e6f72566f74696e6753696d706c653a20696e76616c696420766160448201527f6c756520666f7220656e756d20566f74655479706500000000000000000000006064820152608401610777565b6000818152600160205260408120600281015460ff161561205a5750600792915050565b6002810154610100900460ff16156120755750600292915050565b600061208084610b39565b9050806120cf5760405162461bcd60e51b815260206004820152601d60248201527f476f7665726e6f723a20756e6b6e6f776e2070726f706f73616c2069640000006044820152606401610777565b4381106120e0575060009392505050565b60006120eb85610e1f565b90504381106120ff57506001949350505050565b612108856122d4565b8015612127575060008581526005602052604090208054600190910154115b1561213757506004949350505050565b506003949350505050565b60006001600160401b038211156121aa5760405162461bcd60e51b815260206004820152602660248201527f53616665436173743a2076616c756520646f65736e27742066697420696e203660448201526534206269747360d01b6064820152608401610777565b5090565b60608247101561220f5760405162461bcd60e51b815260206004820152602660248201527f416464726573733a20696e73756666696369656e742062616c616e636520666f6044820152651c8818d85b1b60d21b6064820152608401610777565b6001600160a01b0385163b6122665760405162461bcd60e51b815260206004820152601d60248201527f416464726573733a2063616c6c20746f206e6f6e2d636f6e74726163740000006044820152606401610777565b600080866001600160a01b031685876040516122829190612993565b60006040518083038185875af1925050503d80600081146122bf576040519150601f19603f3d011682016040523d82523d6000602084013e6122c4565b606091505b5091509150610c0482828661230b565b6000818152600560205260408120600281015460018201546122f69190612cc7565b6123026106b785610b39565b11159392505050565b6060831561231a575081610e0d565b82511561232a5782518084602001fd5b8160405162461bcd60e51b81526004016107779190612ac8565b60006001600160401b0383111561235d5761235d612de1565b612370601f8401601f1916602001612c74565b905082815283838301111561238457600080fd5b828260208301376000602084830101529392505050565b600082601f8301126123ab578081fd5b813560206123c06123bb83612ca4565b612c74565b80838252828201915082860187848660051b89010111156123df578586fd5b855b858110156124065781356123f481612df7565b845292840192908401906001016123e1565b5090979650505050505050565b600082601f830112612423578081fd5b813560206124336123bb83612ca4565b80838252828201915082860187848660051b8901011115612452578586fd5b855b858110156124065781356001600160401b03811115612471578788fd5b8801603f81018a13612481578788fd5b6124928a8783013560408401612344565b8552509284019290840190600101612454565b600082601f8301126124b5578081fd5b813560206124c56123bb83612ca4565b80838252828201915082860187848660051b89010111156124e4578586fd5b855b85811015612406578135845292840192908401906001016124e6565b60008083601f840112612513578182fd5b5081356001600160401b03811115612529578182fd5b60208301915083602082850101111561254157600080fd5b9250929050565b803560ff8116811461255957600080fd5b919050565b60008060408385031215612570578182fd5b823561257b81612df7565b946020939093013593505050565b6000806000806060858703121561259e578182fd5b84356125a981612df7565b93506020850135925060408501356001600160401b038111156125ca578283fd5b6125d687828801612502565b95989497509550505050565b600080600080608085870312156125f7578384fd5b84356001600160401b038082111561260d578586fd5b6126198883890161239b565b9550602087013591508082111561262e578485fd5b61263a888389016124a5565b9450604087013591508082111561264f578384fd5b5061265c87828801612413565b949793965093946060013593505050565b60008060008060808587031215612682578182fd5b84356001600160401b0380821115612698578384fd5b6126a48883890161239b565b955060208701359150808211156126b9578384fd5b6126c5888389016124a5565b945060408701359150808211156126da578384fd5b6126e688838901612413565b935060608701359150808211156126fb578283fd5b508501601f8101871361270c578182fd5b61271b87823560208401612344565b91505092959194509250565b600060208284031215612738578081fd5b81518015158114610e0d578182fd5b600060208284031215612758578081fd5b5051919050565b600060208284031215612770578081fd5b81356001600160e01b031981168114610e0d578182fd5b600060208284031215612798578081fd5b8135610e0d81612df7565b6000602082840312156127b4578081fd5b5035919050565b600080604083850312156127cd578182fd5b8235915060208301356127df81612df7565b809150509250929050565b600080604083850312156127fc578182fd5b8235915061280c60208401612548565b90509250929050565b6000806000806060858703121561282a578182fd5b8435935061283a60208601612548565b925060408501356001600160401b038111156125ca578283fd5b600080600080600060a0868803121561286b578283fd5b8535945061287b60208701612548565b935061288960408701612548565b94979396509394606081013594506080013592915050565b6000815180845260208085019450808401835b838110156128d95781516001600160a01b0316875295820195908201906001016128b4565b509495945050505050565b600081518084526020808501808196508360051b81019150828601855b8581101561292b578284038952612919848351612967565b98850198935090840190600101612901565b5091979650505050505050565b6000815180845260208085019450808401835b838110156128d95781518752958201959082019060010161294b565b6000815180845261297f816020860160208601612d60565b601f01601f19169290920160200192915050565b600082516129a5818460208701612d60565b9190910192915050565b6080815260006129c260808301876128a1565b82810360208401526129d48187612938565b905082810360408401526129e881866128e4565b91505082606083015295945050505050565b60a081526000612a0d60a08301886128a1565b8281036020840152612a1f8188612938565b90508281036040840152612a3381876128e4565b60608401959095525050608001529392505050565b60c081526000612a5b60c08301896128a1565b8281036020840152612a6d8189612938565b90508281036040840152612a8181886128e4565b60608401969096525050608081019290925260a0909101529392505050565b6020810160088310612ac257634e487b7160e01b600052602160045260246000fd5b91905290565b602081526000610e0d6020830184612967565b60208082526021908201527f476f7665726e6f723a20696e76616c69642070726f706f73616c206c656e67746040820152600d60fb1b606082015260800190565b60208082526021908201527f476f7665726e6f723a2070726f706f73616c206e6f74207375636365737366756040820152601b60fa1b606082015260800190565b60006101208b835260206001600160a01b038c1681850152816040850152612b878285018c6128a1565b91508382036060850152612b9b828b612938565b915083820360808501528189518084528284019150828160051b850101838c01865b83811015612beb57601f19878403018552612bd9838351612967565b94860194925090850190600101612bbd565b505086810360a0880152612bff818c6128e4565b945050505050612c1a60c08401876001600160401b03169052565b6001600160401b03851660e0840152828103610100840152612c3c8185612967565b9c9b505050505050505050505050565b84815260ff84166020820152826040820152608060608201526000610cea6080830184612967565b604051601f8201601f191681016001600160401b0381118282101715612c9c57612c9c612de1565b604052919050565b60006001600160401b03821115612cbd57612cbd612de1565b5060051b60200190565b60008219821115612cda57612cda612dcb565b500190565b60006001600160401b03808316818516808303821115612d0157612d01612dcb565b01949350505050565b600082612d2557634e487b7160e01b81526012600452602481fd5b500490565b6000816000190483118215151615612d4457612d44612dcb565b500290565b600082821015612d5b57612d5b612dcb565b500390565b60005b83811015612d7b578181015183820152602001612d63565b83811115612d8a576000848401525b50505050565b600181811c90821680612da457607f821691505b60208210811415612dc557634e487b7160e01b600052602260045260246000fd5b50919050565b634e487b7160e01b600052601160045260246000fd5b634e487b7160e01b600052604160045260246000fd5b6001600160a01b038116811461078957600080fdfe416464726573733a206c6f772d6c6576656c2063616c6c20776974682076616c7565206661696c6564476f7665726e6f723a206f6e6c79476f7665726e616e63650000000000000000a26469706673582212202eda4736945d5f4b3257c2cfc86a51c0bcd5d0425c58e3b2f0d285ef053a0da264736f6c63430008040033",
  "linkReferences": {},
  "deployedLinkReferences": {}
}